{
  "contractName": "Escrow",
  "abi": [
    {
      "inputs": [
        {
          "internalType": "address payable",
          "name": "_seller",
          "type": "address"
        },
        {
          "internalType": "address payable",
          "name": "_buyer",
          "type": "address"
        },
        {
          "internalType": "address",
          "name": "_factory",
          "type": "address"
        }
      ],
      "stateMutability": "nonpayable",
      "type": "constructor"
    },
    {
      "stateMutability": "payable",
      "type": "fallback"
    },
    {
      "inputs": [],
      "name": "buyer",
      "outputs": [
        {
          "internalType": "address payable",
          "name": "",
          "type": "address"
        }
      ],
      "stateMutability": "view",
      "type": "function"
    },
    {
      "inputs": [],
      "name": "seller",
      "outputs": [
        {
          "internalType": "address payable",
          "name": "",
          "type": "address"
        }
      ],
      "stateMutability": "view",
      "type": "function"
    },
    {
      "inputs": [],
      "name": "getBuyer",
      "outputs": [
        {
          "internalType": "address",
          "name": "",
          "type": "address"
        }
      ],
      "stateMutability": "view",
      "type": "function"
    },
    {
      "inputs": [],
      "name": "getSeller",
      "outputs": [
        {
          "internalType": "address",
          "name": "",
          "type": "address"
        }
      ],
      "stateMutability": "view",
      "type": "function"
    },
    {
      "inputs": [],
      "name": "getState",
      "outputs": [
        {
          "internalType": "enum contractState",
          "name": "",
          "type": "uint8"
        }
      ],
      "stateMutability": "view",
      "type": "function"
    },
    {
      "inputs": [
        {
          "internalType": "enum contractState",
          "name": "_state",
          "type": "uint8"
        }
      ],
      "name": "setState",
      "outputs": [],
      "stateMutability": "nonpayable",
      "type": "function"
    },
    {
      "inputs": [
        {
          "internalType": "uint256",
          "name": "_time",
          "type": "uint256"
        }
      ],
      "name": "setBuyerConfirmedTimeStamp",
      "outputs": [],
      "stateMutability": "nonpayable",
      "type": "function"
    },
    {
      "inputs": [
        {
          "internalType": "uint256",
          "name": "_startDate",
          "type": "uint256"
        }
      ],
      "name": "setStartDate",
      "outputs": [],
      "stateMutability": "nonpayable",
      "type": "function"
    },
    {
      "inputs": [
        {
          "internalType": "uint256",
          "name": "_endDate",
          "type": "uint256"
        }
      ],
      "name": "setEndDate",
      "outputs": [],
      "stateMutability": "nonpayable",
      "type": "function"
    },
    {
      "inputs": [],
      "name": "getEndDate",
      "outputs": [
        {
          "internalType": "uint256",
          "name": "",
          "type": "uint256"
        }
      ],
      "stateMutability": "view",
      "type": "function"
    },
    {
      "inputs": [],
      "name": "getStartDate",
      "outputs": [
        {
          "internalType": "uint256",
          "name": "",
          "type": "uint256"
        }
      ],
      "stateMutability": "view",
      "type": "function"
    },
    {
      "inputs": [],
      "name": "getBuyerConfirmedTimeStamp",
      "outputs": [
        {
          "internalType": "uint256",
          "name": "",
          "type": "uint256"
        }
      ],
      "stateMutability": "view",
      "type": "function"
    },
    {
      "inputs": [],
      "name": "getSellerConfirmedTimeStamp",
      "outputs": [
        {
          "internalType": "uint256",
          "name": "",
          "type": "uint256"
        }
      ],
      "stateMutability": "view",
      "type": "function"
    },
    {
      "inputs": [],
      "name": "getBuyerSatisfiedTimeStamp",
      "outputs": [
        {
          "internalType": "uint256",
          "name": "",
          "type": "uint256"
        }
      ],
      "stateMutability": "view",
      "type": "function"
    },
    {
      "inputs": [],
      "name": "getCompletedTimeStamp",
      "outputs": [
        {
          "internalType": "uint256",
          "name": "",
          "type": "uint256"
        }
      ],
      "stateMutability": "view",
      "type": "function"
    },
    {
      "inputs": [],
      "name": "accept",
      "outputs": [],
      "stateMutability": "nonpayable",
      "type": "function"
    },
    {
      "inputs": [],
      "name": "cancel",
      "outputs": [],
      "stateMutability": "nonpayable",
      "type": "function"
    },
    {
      "inputs": [],
      "name": "complete",
      "outputs": [],
      "stateMutability": "nonpayable",
      "type": "function"
    },
    {
      "inputs": [
        {
          "internalType": "address payable",
          "name": "_owner",
          "type": "address"
        },
        {
          "internalType": "uint256",
          "name": "_fee",
          "type": "uint256"
        }
      ],
      "name": "sendFee",
      "outputs": [],
      "stateMutability": "nonpayable",
      "type": "function"
    },
    {
      "inputs": [
        {
          "internalType": "uint256",
          "name": "_percent_seller",
          "type": "uint256"
        },
        {
          "internalType": "uint256",
          "name": "_percent_buyer",
          "type": "uint256"
        }
      ],
      "name": "ownerDistribute",
      "outputs": [],
      "stateMutability": "nonpayable",
      "type": "function"
    }
  ],
  "bytecode": "0x60806040523480156200001157600080fd5b506040516200153e3803806200153e8339818101604052810190620000379190620001df565b826000806101000a81548173ffffffffffffffffffffffffffffffffffffffff021916908373ffffffffffffffffffffffffffffffffffffffff16021790555081600160006101000a81548173ffffffffffffffffffffffffffffffffffffffff021916908373ffffffffffffffffffffffffffffffffffffffff16021790555080600260006101000a81548173ffffffffffffffffffffffffffffffffffffffff021916908373ffffffffffffffffffffffffffffffffffffffff1602179055506000600960006101000a81548160ff021916908360048111156200012257620001216200023b565b5b02179055505050506200026a565b600080fd5b600073ffffffffffffffffffffffffffffffffffffffff82169050919050565b6000620001628262000135565b9050919050565b620001748162000155565b81146200018057600080fd5b50565b600081519050620001948162000169565b92915050565b6000620001a78262000135565b9050919050565b620001b9816200019a565b8114620001c557600080fd5b50565b600081519050620001d981620001ae565b92915050565b600080600060608486031215620001fb57620001fa62000130565b5b60006200020b8682870162000183565b93505060206200021e8682870162000183565b92505060406200023186828701620001c8565b9150509250925092565b7f4e487b7100000000000000000000000000000000000000000000000000000000600052602160045260246000fd5b6112c4806200027a6000396000f3fe6080604052600436106101235760003560e01c80637150d8ae116100a0578063c6ff1d8311610064578063c6ff1d8314610377578063d1ce13ce146103a2578063dbd0e1b6146103cd578063ea8a1af0146103f8578063ec2bc6ef1461040f57610124565b80637150d8ae146102a457806378f305c6146102cf57806382d95df5146102fa5780639cb99c6e14610323578063b13564881461034c57610124565b806352fa2643116100e757806352fa2643146101d357806356de96db146101fe5780635b99b6c214610227578063603daf9a1461025057806363d70ec71461027b57610124565b806308551a53146101265780631865c57d146101515780632852b71c1461017c5780633784f00014610193578063522e1177146101bc57610124565b5b005b34801561013257600080fd5b5061013b61043a565b6040516101489190610e89565b60405180910390f35b34801561015d57600080fd5b5061016661045e565b6040516101739190610f1b565b60405180910390f35b34801561018857600080fd5b50610191610475565b005b34801561019f57600080fd5b506101ba60048036038101906101b59190610f71565b610539565b005b3480156101c857600080fd5b506101d16105d3565b005b3480156101df57600080fd5b506101e8610705565b6040516101f59190610fad565b60405180910390f35b34801561020a57600080fd5b5061022560048036038101906102209190610fed565b61070f565b005b34801561023357600080fd5b5061024e6004803603810190610249919061101a565b6107cc565b005b34801561025c57600080fd5b50610265610a4a565b604051610272919061107b565b60405180910390f35b34801561028757600080fd5b506102a2600480360381019061029d91906110c2565b610a74565b005b3480156102b057600080fd5b506102b9610b66565b6040516102c69190610e89565b60405180910390f35b3480156102db57600080fd5b506102e4610b8c565b6040516102f19190610fad565b60405180910390f35b34801561030657600080fd5b50610321600480360381019061031c9190610f71565b610b96565b005b34801561032f57600080fd5b5061034a60048036038101906103459190610f71565b610c30565b005b34801561035857600080fd5b50610361610cca565b60405161036e9190610fad565b60405180910390f35b34801561038357600080fd5b5061038c610cd4565b6040516103999190610fad565b60405180910390f35b3480156103ae57600080fd5b506103b7610cde565b6040516103c49190610fad565b60405180910390f35b3480156103d957600080fd5b506103e2610ce8565b6040516103ef919061107b565b60405180910390f35b34801561040457600080fd5b5061040d610d11565b005b34801561041b57600080fd5b50610424610e3e565b6040516104319190610fad565b60405180910390f35b60008054906101000a900473ffffffffffffffffffffffffffffffffffffffff1681565b6000600960009054906101000a900460ff16905090565b600260009054906101000a900473ffffffffffffffffffffffffffffffffffffffff1673ffffffffffffffffffffffffffffffffffffffff163373ffffffffffffffffffffffffffffffffffffffff1614610505576040517f08c379a00000000000000000000000000000000000000000000000000000000081526004016104fc90611185565b60405180910390fd5b6002600960006101000a81548160ff0219169083600481111561052b5761052a610ea4565b5b021790555042600681905550565b600260009054906101000a900473ffffffffffffffffffffffffffffffffffffffff1673ffffffffffffffffffffffffffffffffffffffff163373ffffffffffffffffffffffffffffffffffffffff16146105c9576040517f08c379a00000000000000000000000000000000000000000000000000000000081526004016105c090611185565b60405180910390fd5b8060048190555050565b600260009054906101000a900473ffffffffffffffffffffffffffffffffffffffff1673ffffffffffffffffffffffffffffffffffffffff163373ffffffffffffffffffffffffffffffffffffffff1614610663576040517f08c379a000000000000000000000000000000000000000000000000000000000815260040161065a90611185565b60405180910390fd5b60008054906101000a900473ffffffffffffffffffffffffffffffffffffffff1673ffffffffffffffffffffffffffffffffffffffff166108fc479081150290604051600060405180830381858888f193505050501580156106c9573d6000803e3d6000fd5b5042600781905550426008819055506003600960006101000a81548160ff021916908360048111156106fe576106fd610ea4565b5b0217905550565b6000600854905090565b600260009054906101000a900473ffffffffffffffffffffffffffffffffffffffff1673ffffffffffffffffffffffffffffffffffffffff163373ffffffffffffffffffffffffffffffffffffffff161461079f576040517f08c379a000000000000000000000000000000000000000000000000000000000815260040161079690611185565b60405180910390fd5b80600960006101000a81548160ff021916908360048111156107c4576107c3610ea4565b5b021790555050565b600260009054906101000a900473ffffffffffffffffffffffffffffffffffffffff1673ffffffffffffffffffffffffffffffffffffffff163373ffffffffffffffffffffffffffffffffffffffff161461085c576040517f08c379a000000000000000000000000000000000000000000000000000000000815260040161085390611185565b60405180910390fd5b600082036108d257600160009054906101000a900473ffffffffffffffffffffffffffffffffffffffff1673ffffffffffffffffffffffffffffffffffffffff166108fc479081150290604051600060405180830381858888f193505050501580156108cc573d6000803e3d6000fd5b50610a46565b600081036109465760008054906101000a900473ffffffffffffffffffffffffffffffffffffffff1673ffffffffffffffffffffffffffffffffffffffff166108fc479081150290604051600060405180830381858888f19350505050158015610940573d6000803e3d6000fd5b50610a45565b60008054906101000a900473ffffffffffffffffffffffffffffffffffffffff1673ffffffffffffffffffffffffffffffffffffffff166108fc6064844761098e91906111d4565b610998919061125d565b9081150290604051600060405180830381858888f193505050501580156109c3573d6000803e3d6000fd5b50600160009054906101000a900473ffffffffffffffffffffffffffffffffffffffff1673ffffffffffffffffffffffffffffffffffffffff166108fc60648347610a0e91906111d4565b610a18919061125d565b9081150290604051600060405180830381858888f19350505050158015610a43573d6000803e3d6000fd5b505b5b5050565b6000600160009054906101000a900473ffffffffffffffffffffffffffffffffffffffff16905090565b600260009054906101000a900473ffffffffffffffffffffffffffffffffffffffff1673ffffffffffffffffffffffffffffffffffffffff163373ffffffffffffffffffffffffffffffffffffffff1614610b04576040517f08c379a0000000000000000000000000000000000000000000000000000000008152600401610afb90611185565b60405180910390fd5b8173ffffffffffffffffffffffffffffffffffffffff166108fc60648347610b2c91906111d4565b610b36919061125d565b9081150290604051600060405180830381858888f19350505050158015610b61573d6000803e3d6000fd5b505050565b600160009054906101000a900473ffffffffffffffffffffffffffffffffffffffff1681565b6000600354905090565b600260009054906101000a900473ffffffffffffffffffffffffffffffffffffffff1673ffffffffffffffffffffffffffffffffffffffff163373ffffffffffffffffffffffffffffffffffffffff1614610c26576040517f08c379a0000000000000000000000000000000000000000000000000000000008152600401610c1d90611185565b60405180910390fd5b8060038190555050565b600260009054906101000a900473ffffffffffffffffffffffffffffffffffffffff1673ffffffffffffffffffffffffffffffffffffffff163373ffffffffffffffffffffffffffffffffffffffff1614610cc0576040517f08c379a0000000000000000000000000000000000000000000000000000000008152600401610cb790611185565b60405180910390fd5b8060058190555050565b6000600454905090565b6000600654905090565b6000600554905090565b60008060009054906101000a900473ffffffffffffffffffffffffffffffffffffffff16905090565b600260009054906101000a900473ffffffffffffffffffffffffffffffffffffffff1673ffffffffffffffffffffffffffffffffffffffff163373ffffffffffffffffffffffffffffffffffffffff1614610da1576040517f08c379a0000000000000000000000000000000000000000000000000000000008152600401610d9890611185565b60405180910390fd5b600160009054906101000a900473ffffffffffffffffffffffffffffffffffffffff1673ffffffffffffffffffffffffffffffffffffffff166108fc479081150290604051600060405180830381858888f19350505050158015610e09573d6000803e3d6000fd5b50426008819055506004600960006101000a81548160ff02191690836004811115610e3757610e36610ea4565b5b0217905550565b6000600754905090565b600073ffffffffffffffffffffffffffffffffffffffff82169050919050565b6000610e7382610e48565b9050919050565b610e8381610e68565b82525050565b6000602082019050610e9e6000830184610e7a565b92915050565b7f4e487b7100000000000000000000000000000000000000000000000000000000600052602160045260246000fd5b60058110610ee457610ee3610ea4565b5b50565b6000819050610ef582610ed3565b919050565b6000610f0582610ee7565b9050919050565b610f1581610efa565b82525050565b6000602082019050610f306000830184610f0c565b92915050565b600080fd5b6000819050919050565b610f4e81610f3b565b8114610f5957600080fd5b50565b600081359050610f6b81610f45565b92915050565b600060208284031215610f8757610f86610f36565b5b6000610f9584828501610f5c565b91505092915050565b610fa781610f3b565b82525050565b6000602082019050610fc26000830184610f9e565b92915050565b60058110610fd557600080fd5b50565b600081359050610fe781610fc8565b92915050565b60006020828403121561100357611002610f36565b5b600061101184828501610fd8565b91505092915050565b6000806040838503121561103157611030610f36565b5b600061103f85828601610f5c565b925050602061105085828601610f5c565b9150509250929050565b600061106582610e48565b9050919050565b6110758161105a565b82525050565b6000602082019050611090600083018461106c565b92915050565b61109f81610e68565b81146110aa57600080fd5b50565b6000813590506110bc81611096565b92915050565b600080604083850312156110d9576110d8610f36565b5b60006110e7858286016110ad565b92505060206110f885828601610f5c565b9150509250929050565b600082825260208201905092915050565b7f4f6e6c792074686520666163746f72792063616e20656469742074686973206360008201527f6f6e747261637400000000000000000000000000000000000000000000000000602082015250565b600061116f602783611102565b915061117a82611113565b604082019050919050565b6000602082019050818103600083015261119e81611162565b9050919050565b7f4e487b7100000000000000000000000000000000000000000000000000000000600052601160045260246000fd5b60006111df82610f3b565b91506111ea83610f3b565b9250817fffffffffffffffffffffffffffffffffffffffffffffffffffffffffffffffff0483118215151615611223576112226111a5565b5b828202905092915050565b7f4e487b7100000000000000000000000000000000000000000000000000000000600052601260045260246000fd5b600061126882610f3b565b915061127383610f3b565b9250826112835761128261122e565b5b82820490509291505056fea264697066735822122067459c3bbe8bafe5897803b8b2eaaa6286a3ee988a2be4e54c6139207a4b217364736f6c634300080e0033",
  "immutableReferences": {},
  "source": "// SPDX-License-Identifier: MIT\r\npragma solidity ^0.8.8;\r\n\r\n// Create an enum which defines what states the contract can be in\r\nenum contractState{AWAITING_BUYER_PAYMENT,AWAITNG_SELLER_ACCEPTANCE,AWAITING_BUYER_SATISFACTION,COMPLETE,CANCELLED}\r\n\r\ncontract Escrow_Factory {\r\n\r\n    // Allows a notification to the user\r\n    event notify(string message);\r\n\r\n    // Initialise global variables\r\n    address payable public factoryOwner;\r\n    uint256 fee;\r\n    mapping(uint256 => Escrow) public escrows;\r\n\r\n    constructor() {\r\n        factoryOwner = payable(msg.sender);\r\n\r\n        // default fee in percent\r\n        fee = 4;\r\n    }\r\n\r\n    // Modifier for a function that means it can only be ran by the factoryOwner\r\n    modifier onlyOwner {\r\n        require(msg.sender == factoryOwner, 'Only the deployer of this contract can create user this function.');\r\n        _;\r\n    }\r\n\r\n    // Allows factory owner to change fee for any future contracts\r\n    function setFee(uint256 _fee) onlyOwner public {\r\n        fee = _fee;\r\n    }\r\n\r\n    // Creates a new escrow contract\r\n    function newEscrow(uint256 _id, address payable _seller, address payable _buyer, uint256 _startDate, uint256 _endDate) external {\r\n\r\n        // Check a contract doesnt already exist with that ID\r\n        require(!this.exists(_id), 'Sorry a contract with that ID already exist.');\r\n\r\n        // Check _seller, _buyer are not empty inputs\r\n        require(_seller != address(0) && _buyer != address(0), 'Ensure buyer and seller address are valid.');\r\n\r\n        // Create new contract\r\n        Escrow e = new Escrow(_seller,_buyer,address(this));\r\n\r\n        e.setStartDate(_startDate);\r\n        e.setEndDate(_endDate);\r\n\r\n        // Store contract in mapping\r\n        escrows[_id] = e;\r\n\r\n    }\r\n\r\n    // Reusable function for buyer to deposit into contract before confirming offer\r\n    function buyerDeposit(uint256 _id) external payable {\r\n\r\n        // Check a contract doesnt already exist with that ID\r\n        require(this.exists(_id), \"Sorry a contract with that ID doesn't exist.\");\r\n\r\n        // Ensure value deposited is greater than 0\r\n        require(msg.value > 0, 'Please ensure amount depositied is greater than 0.');\r\n\r\n        // Get contract\r\n        Escrow e = escrows[_id];\r\n\r\n        // Check msg.sender is the buyer of the contract\r\n        require(msg.sender == e.getBuyer(), 'Only the defined buyer of this contract can deposit to pot.');\r\n\r\n        // Check contract is in a state ready to accept buyer deposit\r\n        require(e.getState() == contractState.AWAITING_BUYER_PAYMENT, 'Contract cannot recieve any more funds.');\r\n\r\n        // Move funds to escrow contract\r\n        (bool success, ) = address(e).call{value:msg.value}('');\r\n        require(success, 'Error transfering funds to escrow contract.');\r\n\r\n        // Notify user\r\n        emit notify('Successfully deposited funds.');\r\n\r\n    }\r\n\r\n    // Function to confirm with buyer the amount of ether entered into the contract is correct. If\r\n    // not then the funds stored within contract is returned back to the buyer and contract is marked as complete\r\n    function buyerConfirm(uint256 _id, bool _decision) public {\r\n\r\n        // Check a contract doesnt already exist with that ID\r\n        require(this.exists(_id), \"Sorry a contract with that ID doesn't exist.\");\r\n\r\n        // Get contract\r\n        Escrow e = escrows[_id];\r\n\r\n        // Check msg.sender is the buyer of the contract\r\n        require(msg.sender == e.getBuyer(), 'Only the defined buyer of this contract can deposit to pot.');\r\n\r\n        // Require contract still be in deposit phase\r\n        require(e.getState() == contractState.AWAITING_BUYER_PAYMENT, 'Contract must be accepting funds in order to be confirmed by buyer.');\r\n\r\n        // Check confirmation\r\n        require(_decision, 'To cancel contract enter a valid positive bool input.');\r\n\r\n        // If user inputs true (yes) then set contract to state where seller can accept\r\n        // If user inputs false (no) then cancel and refund monies\r\n        if(_decision) {\r\n\r\n            // Update state of contract to allow seller to accept\r\n            e.setState(contractState.AWAITNG_SELLER_ACCEPTANCE);\r\n\r\n            // Log timestamp when value was confirmed by buyer\r\n            e.setBuyerConfirmedTimeStamp(block.timestamp);\r\n\r\n            // Notify user\r\n            emit notify('Contract is now awaiting seller acceptance.');\r\n\r\n        } else {\r\n\r\n            // Refund value of escrow contract\r\n            e.cancel();\r\n\r\n            // Notify user\r\n            emit notify('Contract has been cancelled, funds have been returned.');\r\n        }\r\n\r\n    }\r\n\r\n    // Function allows buyer to cancel contract if seller doesn't accept within allotted time\r\n    function buyerCancel(uint256 _id, bool _cancel) public {\r\n\r\n        // Check a contract doesnt already exist with that ID\r\n        require(this.exists(_id), \"Sorry a contract with that ID doesn't exist.\");\r\n\r\n        // Get contract\r\n        Escrow e = escrows[_id];\r\n\r\n        // Check msg.sender is the buyer\r\n        require(msg.sender == e.getBuyer(), 'Only the buyer of this contract can cancel offer.');\r\n\r\n        // Attempt to cancel contract\r\n        require(_cancel, 'To cancel contract enter a valid positive bool input');\r\n\r\n        // Make sure contract is in a state that can be cancelled\r\n        require(e.getState() == contractState.AWAITNG_SELLER_ACCEPTANCE || e.getState() == contractState.AWAITING_BUYER_PAYMENT, 'Contract can only be cancelled if it is still awaiting acceptance from seller.');\r\n\r\n        // If contract is waiting on buyer confirmation then cancel and return monies straight away. If waiting for seller\r\n        // to accept then check if 5 days have passed for the seller to accept before allowing buyer to cancel\r\n        if(e.getState() == contractState.AWAITING_BUYER_PAYMENT) {\r\n\r\n            // Cancel contract\r\n            e.cancel();\r\n\r\n            // Notify user\r\n            emit notify('Contract cancelled and state updated.');\r\n\r\n        } else if (e.getState() == contractState.AWAITNG_SELLER_ACCEPTANCE) {\r\n\r\n            // Make sure 5 days have passed for seller to accept\r\n            require((block.timestamp - e.getBuyerConfirmedTimeStamp()) > 5 days, 'Please allow 5 days (including weekends) for the seller to accept before cancelling.');\r\n\r\n            // Refund monies and complete contract\r\n            e.cancel();\r\n\r\n            // Notify user\r\n            emit notify('Contract cancelled and state updated.');\r\n\r\n        }\r\n\r\n    }\r\n\r\n    // This function allows only the seller to accept an offer from the buyer. If they chose to deny (cancel) the offer\r\n    // then all monies are returned back to the buyer.\r\n    function sellerAccept(uint256 _id, bool _decision) public {\r\n\r\n        // Check a contract doesnt already exist with that ID\r\n        require(this.exists(_id), \"Sorry a contract with that ID doesn't exist.\");\r\n\r\n        // Get contract\r\n        Escrow e = escrows[_id];\r\n\r\n        // Check msg.sender is the buyer\r\n        require(msg.sender == e.getSeller(), 'Only the seller of this contract can accept offer');\r\n\r\n        // Ensure contract is waiting for seller acceptance\r\n        require(e.getState() == contractState.AWAITNG_SELLER_ACCEPTANCE, 'Sorry, this contract cannot be accepted at this time.');\r\n\r\n        // If decision is true (accepted) then accept contract and send fee to factory owner, if decision is false (declined)\r\n        // then refund monies\r\n        if(_decision) {\r\n\r\n            // Accept contract\r\n            e.accept();\r\n\r\n            // fee for using escrow contract\r\n            e.sendFee(factoryOwner, fee);\r\n\r\n            // Notify user\r\n            emit notify('Contract has been accepted.');\r\n\r\n        } else if (!_decision) {\r\n\r\n            // Refund monies to buyer\r\n            e.cancel();\r\n\r\n            // Notify user\r\n            emit notify('Contract cancelled.');\r\n\r\n        }\r\n\r\n    }\r\n\r\n    // Determines if buyer is satisfied with product. Asks for confirmation of satisfaction before funds are \r\n    // then paid to the seller\r\n    function buyerSatisfied(uint256 _id, bool _decision, bool _confirm) public {\r\n\r\n        // Check a contract doesnt already exist with that ID\r\n        require(this.exists(_id), \"Sorry a contract with that ID doesn't exist.\");\r\n\r\n        // Get contract\r\n        Escrow e = escrows[_id];\r\n\r\n        // Check msg.sender is the buyer\r\n        require(msg.sender == e.getBuyer(), 'Only the buyer of this contract can cancel offer.');\r\n\r\n        // Check state is waiting for buyer satisfaction\r\n        require(e.getState() == contractState.AWAITING_BUYER_SATISFACTION, 'Contract is not currently waiting for buyer satisfaction.');\r\n\r\n        // Make sure input entered is a positive bool\r\n        require(_decision && _confirm, 'To confirm contract satisfaction please ensure both your decision and confirmation are positive bool inputs.');\r\n\r\n        // Complete contract\r\n        e.complete();\r\n\r\n    }\r\n\r\n    // Admin function for the factory owner. If any disputes occur the factory owner can distribute the contract worth\r\n    // between the buyer and seller as they see fit\r\n    function ownerDecision(uint256 _id, uint256 _percent_seller, uint256 _percent_buyer) onlyOwner external {\r\n\r\n        // Check a contract doesnt already exist with that ID\r\n        require(this.exists(_id), \"Sorry a contract with that ID doesn't exist.\");\r\n\r\n        // Get contract\r\n        Escrow e = escrows[_id];\r\n\r\n        // Check that values entered add up to 100\r\n        require(_percent_seller + _percent_buyer == 100, 'Percents must add up to 100.');\r\n\r\n        // Distribute funds accordingly\r\n        e.ownerDistribute(_percent_seller,_percent_buyer);\r\n\r\n    }\r\n\r\n    // Gets the value of a contract\r\n    function getContractValue(uint256 _id) public view returns (uint256) {\r\n        \r\n        // Check a contract doesnt already exist with that ID\r\n        require(this.exists(_id), \"Sorry a contract with that ID doesn't exist.\");\r\n\r\n        // Get contract\r\n        Escrow e = escrows[_id];\r\n\r\n        // Return balance of contract\r\n        return address(e).balance;\r\n\r\n    }\r\n\r\n    // Gets the address of an escrow contract\r\n    function getContractAddress(uint256 _id) public view returns (address) {\r\n\r\n        // Check a contract doesnt already exist with that ID\r\n        require(this.exists(_id), \"Sorry a contract with that ID doesn't exist.\");\r\n\r\n        // Get contract\r\n        Escrow e = escrows[_id];\r\n\r\n        // Return address of contract\r\n        return address(e);\r\n\r\n    }\r\n\r\n    // Checks if a contract is already allocated a unique ID\r\n    function exists(uint256 _id) public view returns (bool) {\r\n        if(address(escrows[_id]) != address(0)) {\r\n            return true;\r\n        } else {\r\n            return false;\r\n        }\r\n    }\r\n\r\n    // Gets contract state\r\n    function getContractState(uint256 _id) public view returns (contractState) {\r\n        \r\n        // Check a contract doesnt already exist with that ID\r\n        require(this.exists(_id), \"Sorry a contract with that ID doesn't exist.\");\r\n\r\n        // Get contract\r\n        Escrow e = escrows[_id];\r\n\r\n        // Return address of contract\r\n        return e.getState();\r\n    }\r\n\r\n    // Gets unix timestamp when buyer confirms deposit\r\n    function getContractBuyerConfirmedTime(uint256 _id) public view returns (uint256) {\r\n\r\n        // Check a contract doesnt already exist with that ID\r\n        require(this.exists(_id), \"Sorry a contract with that ID doesn't exist.\");\r\n\r\n        // Get contract\r\n        Escrow e = escrows[_id];\r\n\r\n        // Return buyer confirmation timestamp of contract\r\n        return e.getBuyerConfirmedTimeStamp();\r\n        \r\n    }\r\n\r\n    // Gets unix timestamp when seller accepts offer\r\n    function getContractSellerConfirmedTimeStamp(uint256 _id) public view returns (uint256) {\r\n\r\n        // Check a contract doesnt already exist with that ID\r\n        require(this.exists(_id), \"Sorry a contract with that ID doesn't exist.\");\r\n\r\n        // Get contract\r\n        Escrow e = escrows[_id];\r\n\r\n        // Return address of contract\r\n        return e.getSellerConfirmedTimeStamp();\r\n        \r\n    }\r\n\r\n    // Gets unix timestamp when buyer is satisfied with sellers product\r\n    function getContractBuyerSatisfiedTimeStamp(uint256 _id) public view returns (uint256) {\r\n\r\n        // Check a contract doesnt already exist with that ID\r\n        require(this.exists(_id), \"Sorry a contract with that ID doesn't exist.\");\r\n\r\n        // Get contract\r\n        Escrow e = escrows[_id];\r\n\r\n        // Return address of contract\r\n        return e.getBuyerSatisfiedTimeStamp();\r\n        \r\n    }\r\n\r\n    // Gets unix timestmap when contract is completed\r\n    function getContractCompletedTimeStamp(uint256 _id) public view returns (uint256) {\r\n\r\n        // Check a contract doesnt already exist with that ID\r\n        require(this.exists(_id), \"Sorry a contract with that ID doesn't exist.\");\r\n\r\n        // Get contract\r\n        Escrow e = escrows[_id];\r\n\r\n        // Return address of contract\r\n        return e.getCompletedTimeStamp();\r\n        \r\n    }\r\n\r\n    function getStartDate(uint256 _id) public view returns (uint256) {\r\n\r\n        // Check a contract doesnt already exist with that ID\r\n        require(this.exists(_id), \"Sorry a contract with that ID doesn't exist.\");\r\n\r\n        // Get contract\r\n        Escrow e = escrows[_id];\r\n\r\n        // Return start date of contract\r\n        return e.getStartDate();\r\n\r\n    }\r\n\r\n    function getEndDate(uint256 _id) public view returns (uint256) {\r\n\r\n        // Check a contract doesnt already exist with that ID\r\n        require(this.exists(_id), \"Sorry a contract with that ID doesn't exist.\");\r\n\r\n        // Get contract\r\n        Escrow e = escrows[_id];\r\n\r\n        // Return start date of contract\r\n        return e.getEndDate();\r\n\r\n    }\r\n\r\n}\r\n\r\ncontract Escrow {\r\n\r\n    address payable public seller;\r\n    address payable public buyer;\r\n    address factory;\r\n\r\n    uint256 startDate;\r\n    uint256 endDate;\r\n    uint256 buyerConfirmedTimeStamp;\r\n    uint256 sellerConfirmedTimeStamp;\r\n    uint256 buyerSatisfiedTimeStamp;\r\n    uint256 completedTimeStamp;\r\n\r\n    contractState state;\r\n\r\n    modifier onlyFactory {\r\n        require(msg.sender == factory, 'Only the factory can edit this contract');\r\n        _;\r\n    }\r\n\r\n    constructor(address payable _seller, address payable _buyer, address _factory) {\r\n        seller = _seller;\r\n        buyer = _buyer;\r\n        factory = _factory;\r\n\r\n        state = contractState.AWAITING_BUYER_PAYMENT;\r\n    }\r\n\r\n    function getBuyer() public view returns (address) {\r\n        return buyer;\r\n    }\r\n\r\n    function getSeller() public view returns (address) {\r\n        return seller;\r\n    }\r\n\r\n    function getState() public view returns (contractState) {\r\n        return state;\r\n    }\r\n\r\n    function setState(contractState _state) onlyFactory public {\r\n        state = _state;\r\n    }\r\n\r\n    function setBuyerConfirmedTimeStamp(uint256 _time) onlyFactory public {\r\n        buyerConfirmedTimeStamp = _time;\r\n    }\r\n\r\n    function setStartDate(uint256 _startDate) onlyFactory public {\r\n        startDate = _startDate;\r\n    }\r\n\r\n    function setEndDate(uint256 _endDate) onlyFactory public {\r\n        endDate = _endDate;\r\n    }\r\n\r\n    function getEndDate() public view returns (uint256) {\r\n        return endDate;\r\n    }\r\n\r\n    function getStartDate() public view returns (uint256) {\r\n        return startDate;\r\n    }\r\n\r\n    function getBuyerConfirmedTimeStamp() public view returns (uint256) {\r\n        return buyerConfirmedTimeStamp;\r\n    }\r\n\r\n    function getSellerConfirmedTimeStamp() public view returns (uint256) {\r\n        return sellerConfirmedTimeStamp;\r\n    }\r\n\r\n    function getBuyerSatisfiedTimeStamp() public view returns (uint256) {\r\n        return buyerSatisfiedTimeStamp;\r\n    }\r\n\r\n    function getCompletedTimeStamp() public view returns (uint256) {\r\n        return completedTimeStamp;\r\n    }\r\n\r\n    fallback() external payable {}\r\n\r\n    function accept() onlyFactory public {\r\n\r\n        state = contractState.AWAITING_BUYER_SATISFACTION;\r\n\r\n        sellerConfirmedTimeStamp = block.timestamp;\r\n\r\n    }\r\n\r\n    function cancel() onlyFactory external {\r\n\r\n        buyer.transfer(address(this).balance);\r\n\r\n        completedTimeStamp = block.timestamp;\r\n\r\n        state  = contractState.CANCELLED;\r\n    }\r\n\r\n    function complete() onlyFactory external {\r\n\r\n        seller.transfer(address(this).balance);\r\n\r\n        buyerSatisfiedTimeStamp = block.timestamp;\r\n        completedTimeStamp = block.timestamp;\r\n\r\n        state = contractState.COMPLETE;\r\n\r\n    }\r\n\r\n    function sendFee(address payable _owner, uint256 _fee) onlyFactory external {\r\n\r\n        _owner.transfer((address(this).balance) * _fee/100);\r\n\r\n    }\r\n\r\n    function ownerDistribute(uint256 _percent_seller, uint256 _percent_buyer) onlyFactory external {\r\n\r\n        if(_percent_seller == 0) {\r\n            buyer.transfer(address(this).balance);\r\n        } else if (_percent_buyer == 0) {\r\n            seller.transfer(address(this).balance);\r\n        } else {\r\n            seller.transfer((address(this).balance) * _percent_seller/100);\r\n            buyer.transfer((address(this).balance) * _percent_buyer/100);\r\n        }\r\n\r\n    }\r\n\r\n}\r\n\r\n// Author: Etienne Cellier-Clarke, add me on LinkedIn. Cheers.",
  "sourcePath": "E:\\contractFactory\\contracts\\Escrow_Factory.sol",
  "compiler": {
    "name": "solc",
    "version": "0.8.14+commit.80d49f37.Emscripten.clang"
  },
  "schemaVersion": "3.4.4",
  "updatedAt": "2022-06-16T17:49:32.748Z",
  "devdoc": {
    "kind": "dev",
    "methods": {},
    "version": 1
  },
  "userdoc": {
    "kind": "user",
    "methods": {},
    "version": 1
  }
}