{
  "contractName": "Escrow_Factory",
  "abi": [
    {
      "inputs": [],
      "stateMutability": "nonpayable",
      "type": "constructor"
    },
    {
      "anonymous": false,
      "inputs": [
        {
          "indexed": false,
          "internalType": "string",
          "name": "message",
          "type": "string"
        }
      ],
      "name": "notify",
      "type": "event"
    },
    {
      "inputs": [
        {
          "internalType": "uint256",
          "name": "",
          "type": "uint256"
        }
      ],
      "name": "escrows",
      "outputs": [
        {
          "internalType": "contract Escrow",
          "name": "",
          "type": "address"
        }
      ],
      "stateMutability": "view",
      "type": "function"
    },
    {
      "inputs": [],
      "name": "factoryOwner",
      "outputs": [
        {
          "internalType": "address payable",
          "name": "",
          "type": "address"
        }
      ],
      "stateMutability": "view",
      "type": "function"
    },
    {
      "inputs": [
        {
          "internalType": "uint256",
          "name": "_fee",
          "type": "uint256"
        }
      ],
      "name": "setFee",
      "outputs": [],
      "stateMutability": "nonpayable",
      "type": "function"
    },
    {
      "inputs": [
        {
          "internalType": "uint256",
          "name": "_id",
          "type": "uint256"
        },
        {
          "internalType": "address payable",
          "name": "_seller",
          "type": "address"
        },
        {
          "internalType": "address payable",
          "name": "_buyer",
          "type": "address"
        },
        {
          "internalType": "uint256",
          "name": "_startDate",
          "type": "uint256"
        },
        {
          "internalType": "uint256",
          "name": "_endDate",
          "type": "uint256"
        }
      ],
      "name": "newEscrow",
      "outputs": [],
      "stateMutability": "nonpayable",
      "type": "function"
    },
    {
      "inputs": [
        {
          "internalType": "uint256",
          "name": "_id",
          "type": "uint256"
        }
      ],
      "name": "buyerDeposit",
      "outputs": [],
      "stateMutability": "payable",
      "type": "function"
    },
    {
      "inputs": [
        {
          "internalType": "uint256",
          "name": "_id",
          "type": "uint256"
        },
        {
          "internalType": "bool",
          "name": "_decision",
          "type": "bool"
        }
      ],
      "name": "buyerConfirm",
      "outputs": [],
      "stateMutability": "nonpayable",
      "type": "function"
    },
    {
      "inputs": [
        {
          "internalType": "uint256",
          "name": "_id",
          "type": "uint256"
        },
        {
          "internalType": "bool",
          "name": "_cancel",
          "type": "bool"
        }
      ],
      "name": "buyerCancel",
      "outputs": [],
      "stateMutability": "nonpayable",
      "type": "function"
    },
    {
      "inputs": [
        {
          "internalType": "uint256",
          "name": "_id",
          "type": "uint256"
        },
        {
          "internalType": "bool",
          "name": "_decision",
          "type": "bool"
        }
      ],
      "name": "sellerAccept",
      "outputs": [],
      "stateMutability": "nonpayable",
      "type": "function"
    },
    {
      "inputs": [
        {
          "internalType": "uint256",
          "name": "_id",
          "type": "uint256"
        },
        {
          "internalType": "bool",
          "name": "_decision",
          "type": "bool"
        },
        {
          "internalType": "bool",
          "name": "_confirm",
          "type": "bool"
        }
      ],
      "name": "buyerSatisfied",
      "outputs": [],
      "stateMutability": "nonpayable",
      "type": "function"
    },
    {
      "inputs": [
        {
          "internalType": "uint256",
          "name": "_id",
          "type": "uint256"
        },
        {
          "internalType": "uint256",
          "name": "_percent_seller",
          "type": "uint256"
        },
        {
          "internalType": "uint256",
          "name": "_percent_buyer",
          "type": "uint256"
        }
      ],
      "name": "ownerDecision",
      "outputs": [],
      "stateMutability": "nonpayable",
      "type": "function"
    },
    {
      "inputs": [
        {
          "internalType": "uint256",
          "name": "_id",
          "type": "uint256"
        }
      ],
      "name": "getContractValue",
      "outputs": [
        {
          "internalType": "uint256",
          "name": "",
          "type": "uint256"
        }
      ],
      "stateMutability": "view",
      "type": "function"
    },
    {
      "inputs": [
        {
          "internalType": "uint256",
          "name": "_id",
          "type": "uint256"
        }
      ],
      "name": "getContractAddress",
      "outputs": [
        {
          "internalType": "address",
          "name": "",
          "type": "address"
        }
      ],
      "stateMutability": "view",
      "type": "function"
    },
    {
      "inputs": [
        {
          "internalType": "uint256",
          "name": "_id",
          "type": "uint256"
        }
      ],
      "name": "exists",
      "outputs": [
        {
          "internalType": "bool",
          "name": "",
          "type": "bool"
        }
      ],
      "stateMutability": "view",
      "type": "function"
    },
    {
      "inputs": [
        {
          "internalType": "uint256",
          "name": "_id",
          "type": "uint256"
        }
      ],
      "name": "getContractState",
      "outputs": [
        {
          "internalType": "enum contractState",
          "name": "",
          "type": "uint8"
        }
      ],
      "stateMutability": "view",
      "type": "function"
    },
    {
      "inputs": [
        {
          "internalType": "uint256",
          "name": "_id",
          "type": "uint256"
        }
      ],
      "name": "getContractBuyerConfirmedTime",
      "outputs": [
        {
          "internalType": "uint256",
          "name": "",
          "type": "uint256"
        }
      ],
      "stateMutability": "view",
      "type": "function"
    },
    {
      "inputs": [
        {
          "internalType": "uint256",
          "name": "_id",
          "type": "uint256"
        }
      ],
      "name": "getContractSellerConfirmedTimeStamp",
      "outputs": [
        {
          "internalType": "uint256",
          "name": "",
          "type": "uint256"
        }
      ],
      "stateMutability": "view",
      "type": "function"
    },
    {
      "inputs": [
        {
          "internalType": "uint256",
          "name": "_id",
          "type": "uint256"
        }
      ],
      "name": "getContractBuyerSatisfiedTimeStamp",
      "outputs": [
        {
          "internalType": "uint256",
          "name": "",
          "type": "uint256"
        }
      ],
      "stateMutability": "view",
      "type": "function"
    },
    {
      "inputs": [
        {
          "internalType": "uint256",
          "name": "_id",
          "type": "uint256"
        }
      ],
      "name": "getContractCompletedTimeStamp",
      "outputs": [
        {
          "internalType": "uint256",
          "name": "",
          "type": "uint256"
        }
      ],
      "stateMutability": "view",
      "type": "function"
    },
    {
      "inputs": [
        {
          "internalType": "uint256",
          "name": "_id",
          "type": "uint256"
        }
      ],
      "name": "getStartDate",
      "outputs": [
        {
          "internalType": "uint256",
          "name": "",
          "type": "uint256"
        }
      ],
      "stateMutability": "view",
      "type": "function"
    },
    {
      "inputs": [
        {
          "internalType": "uint256",
          "name": "_id",
          "type": "uint256"
        }
      ],
      "name": "getEndDate",
      "outputs": [
        {
          "internalType": "uint256",
          "name": "",
          "type": "uint256"
        }
      ],
      "stateMutability": "view",
      "type": "function"
    }
  ],
  "bytecode": "0x608060405234801561001057600080fd5b50336000806101000a81548173ffffffffffffffffffffffffffffffffffffffff021916908373ffffffffffffffffffffffffffffffffffffffff1602179055506004600181905550615ca7806100686000396000f3fe6080604052600436106200013a5760003560e01c8063664d394711620000af578063aefa7d98116200006d578063aefa7d981462000495578063ba92763a14620004d9578063d4fc2e20146200051d578063d76e7d441462000561578063fca98be9146200058f576200013a565b8063664d394714620003a757806369fe0e2d14620003d55780636deba5f3146200040357806382c496fa1462000423578063976d9d831462000467576200013a565b80633914b54211620000fd5780633914b54214620002675780634273601c14620002ab5780634f558e7914620002db578063545f5ebe146200031f5780635c6b047a1462000363576200013a565b8063012f52ee146200013f5780630f8237eb146200018357806319b488ed14620001b157806324aff2b814620001df5780632fcc445d1462000223575b600080fd5b3480156200014c57600080fd5b506200016b6004803603810190620001659190620030b9565b620005bd565b6040516200017a919062003176565b60405180910390f35b3480156200019057600080fd5b50620001af6004803603810190620001a99190620031d8565b620005f0565b005b348015620001be57600080fd5b50620001dd6004803603810190620001d791906200329d565b620008d8565b005b348015620001ec57600080fd5b506200020b6004803603810190620002059190620030b9565b62000fcb565b6040516200021a9190620032f5565b60405180910390f35b3480156200023057600080fd5b506200024f6004803603810190620002499190620030b9565b620010e6565b6040516200025e9190620032f5565b60405180910390f35b3480156200027457600080fd5b506200029360048036038101906200028d9190620030b9565b6200125b565b604051620002a2919062003392565b60405180910390f35b348015620002b857600080fd5b50620002c3620013d0565b604051620002d29190620033c0565b60405180910390f35b348015620002e857600080fd5b50620003076004803603810190620003019190620030b9565b620013f4565b604051620003169190620033ee565b60405180910390f35b3480156200032c57600080fd5b506200034b6004803603810190620003459190620030b9565b62001471565b6040516200035a9190620032f5565b60405180910390f35b3480156200037057600080fd5b506200038f6004803603810190620003899190620030b9565b620015e6565b6040516200039e9190620032f5565b60405180910390f35b348015620003b457600080fd5b50620003d36004803603810190620003cd91906200340b565b6200175b565b005b348015620003e257600080fd5b50620004016004803603810190620003fb9190620030b9565b620019af565b005b6200042160048036038101906200041b9190620030b9565b62001a4a565b005b3480156200043057600080fd5b506200044f6004803603810190620004499190620030b9565b62001e3b565b6040516200045e9190620032f5565b60405180910390f35b3480156200047457600080fd5b506200049360048036038101906200048d91906200329d565b62001fb0565b005b348015620004a257600080fd5b50620004c16004803603810190620004bb9190620030b9565b62002471565b604051620004d091906200348c565b60405180910390f35b348015620004e657600080fd5b50620005056004803603810190620004ff9190620030b9565b62002575565b604051620005149190620032f5565b60405180910390f35b3480156200052a57600080fd5b50620005496004803603810190620005439190620030b9565b620026ea565b604051620005589190620032f5565b60405180910390f35b3480156200056e57600080fd5b506200058d6004803603810190620005879190620034a9565b6200285f565b005b3480156200059c57600080fd5b50620005bb6004803603810190620005b591906200329d565b62002bd0565b005b60026020528060005260406000206000915054906101000a900473ffffffffffffffffffffffffffffffffffffffff1681565b3073ffffffffffffffffffffffffffffffffffffffff16634f558e79866040518263ffffffff1660e01b81526004016200062b9190620032f5565b602060405180830381865afa15801562000649573d6000803e3d6000fd5b505050506040513d601f19601f820116820180604052508101906200066f91906200351c565b15620006b2576040517f08c379a0000000000000000000000000000000000000000000000000000000008152600401620006a990620035d5565b60405180910390fd5b600073ffffffffffffffffffffffffffffffffffffffff168473ffffffffffffffffffffffffffffffffffffffff16141580156200071d5750600073ffffffffffffffffffffffffffffffffffffffff168373ffffffffffffffffffffffffffffffffffffffff1614155b6200075f576040517f08c379a000000000000000000000000000000000000000000000000000000000815260040162000756906200366d565b60405180910390fd5b600084843060405162000772906200306b565b62000780939291906200368f565b604051809103906000f0801580156200079d573d6000803e3d6000fd5b5090508073ffffffffffffffffffffffffffffffffffffffff166382d95df5846040518263ffffffff1660e01b8152600401620007db9190620032f5565b600060405180830381600087803b158015620007f657600080fd5b505af11580156200080b573d6000803e3d6000fd5b505050508073ffffffffffffffffffffffffffffffffffffffff16633784f000836040518263ffffffff1660e01b81526004016200084a9190620032f5565b600060405180830381600087803b1580156200086557600080fd5b505af11580156200087a573d6000803e3d6000fd5b50505050806002600088815260200190815260200160002060006101000a81548173ffffffffffffffffffffffffffffffffffffffff021916908373ffffffffffffffffffffffffffffffffffffffff160217905550505050505050565b3073ffffffffffffffffffffffffffffffffffffffff16634f558e79836040518263ffffffff1660e01b8152600401620009139190620032f5565b602060405180830381865afa15801562000931573d6000803e3d6000fd5b505050506040513d601f19601f820116820180604052508101906200095791906200351c565b62000999576040517f08c379a0000000000000000000000000000000000000000000000000000000008152600401620009909062003742565b60405180910390fd5b60006002600084815260200190815260200160002060009054906101000a900473ffffffffffffffffffffffffffffffffffffffff1690508073ffffffffffffffffffffffffffffffffffffffff1663603daf9a6040518163ffffffff1660e01b8152600401602060405180830381865afa15801562000a1d573d6000803e3d6000fd5b505050506040513d601f19601f8201168201806040525081019062000a43919062003795565b73ffffffffffffffffffffffffffffffffffffffff163373ffffffffffffffffffffffffffffffffffffffff161462000ab3576040517f08c379a000000000000000000000000000000000000000000000000000000000815260040162000aaa906200383d565b60405180910390fd5b8162000af6576040517f08c379a000000000000000000000000000000000000000000000000000000000815260040162000aed90620038d5565b60405180910390fd5b6001600481111562000b0d5762000b0c62003312565b5b8173ffffffffffffffffffffffffffffffffffffffff16631865c57d6040518163ffffffff1660e01b8152600401602060405180830381865afa15801562000b59573d6000803e3d6000fd5b505050506040513d601f19601f8201168201806040525081019062000b7f91906200391f565b600481111562000b945762000b9362003312565b5b148062000c3c57506000600481111562000bb35762000bb262003312565b5b8173ffffffffffffffffffffffffffffffffffffffff16631865c57d6040518163ffffffff1660e01b8152600401602060405180830381865afa15801562000bff573d6000803e3d6000fd5b505050506040513d601f19601f8201168201806040525081019062000c2591906200391f565b600481111562000c3a5762000c3962003312565b5b145b62000c7e576040517f08c379a000000000000000000000000000000000000000000000000000000000815260040162000c7590620039ed565b60405180910390fd5b6000600481111562000c955762000c9462003312565b5b8173ffffffffffffffffffffffffffffffffffffffff16631865c57d6040518163ffffffff1660e01b8152600401602060405180830381865afa15801562000ce1573d6000803e3d6000fd5b505050506040513d601f19601f8201168201806040525081019062000d0791906200391f565b600481111562000d1c5762000d1b62003312565b5b0362000dc1578073ffffffffffffffffffffffffffffffffffffffff1663ea8a1af06040518163ffffffff1660e01b8152600401600060405180830381600087803b15801562000d6b57600080fd5b505af115801562000d80573d6000803e3d6000fd5b505050507fa396f8d98c67c164560cb969bf42c7fd20318f6a13d8a83e7a589a61fb1214b660405162000db39062003a85565b60405180910390a162000fc6565b6001600481111562000dd85762000dd762003312565b5b8173ffffffffffffffffffffffffffffffffffffffff16631865c57d6040518163ffffffff1660e01b8152600401602060405180830381865afa15801562000e24573d6000803e3d6000fd5b505050506040513d601f19601f8201168201806040525081019062000e4a91906200391f565b600481111562000e5f5762000e5e62003312565b5b0362000fc557620697808173ffffffffffffffffffffffffffffffffffffffff1663d1ce13ce6040518163ffffffff1660e01b8152600401602060405180830381865afa15801562000eb5573d6000803e3d6000fd5b505050506040513d601f19601f8201168201806040525081019062000edb919062003abe565b4262000ee8919062003b1f565b1162000f2b576040517f08c379a000000000000000000000000000000000000000000000000000000000815260040162000f229062003bf6565b60405180910390fd5b8073ffffffffffffffffffffffffffffffffffffffff1663ea8a1af06040518163ffffffff1660e01b8152600401600060405180830381600087803b15801562000f7457600080fd5b505af115801562000f89573d6000803e3d6000fd5b505050507fa396f8d98c67c164560cb969bf42c7fd20318f6a13d8a83e7a589a61fb1214b660405162000fbc9062003a85565b60405180910390a15b5b505050565b60003073ffffffffffffffffffffffffffffffffffffffff16634f558e79836040518263ffffffff1660e01b8152600401620010089190620032f5565b602060405180830381865afa15801562001026573d6000803e3d6000fd5b505050506040513d601f19601f820116820180604052508101906200104c91906200351c565b6200108e576040517f08c379a0000000000000000000000000000000000000000000000000000000008152600401620010859062003742565b60405180910390fd5b60006002600084815260200190815260200160002060009054906101000a900473ffffffffffffffffffffffffffffffffffffffff1690508073ffffffffffffffffffffffffffffffffffffffff1631915050919050565b60003073ffffffffffffffffffffffffffffffffffffffff16634f558e79836040518263ffffffff1660e01b8152600401620011239190620032f5565b602060405180830381865afa15801562001141573d6000803e3d6000fd5b505050506040513d601f19601f820116820180604052508101906200116791906200351c565b620011a9576040517f08c379a0000000000000000000000000000000000000000000000000000000008152600401620011a09062003742565b60405180910390fd5b60006002600084815260200190815260200160002060009054906101000a900473ffffffffffffffffffffffffffffffffffffffff1690508073ffffffffffffffffffffffffffffffffffffffff166352fa26436040518163ffffffff1660e01b8152600401602060405180830381865afa1580156200122d573d6000803e3d6000fd5b505050506040513d601f19601f8201168201806040525081019062001253919062003abe565b915050919050565b60003073ffffffffffffffffffffffffffffffffffffffff16634f558e79836040518263ffffffff1660e01b8152600401620012989190620032f5565b602060405180830381865afa158015620012b6573d6000803e3d6000fd5b505050506040513d601f19601f82011682018060405250810190620012dc91906200351c565b6200131e576040517f08c379a0000000000000000000000000000000000000000000000000000000008152600401620013159062003742565b60405180910390fd5b60006002600084815260200190815260200160002060009054906101000a900473ffffffffffffffffffffffffffffffffffffffff1690508073ffffffffffffffffffffffffffffffffffffffff16631865c57d6040518163ffffffff1660e01b8152600401602060405180830381865afa158015620013a2573d6000803e3d6000fd5b505050506040513d601f19601f82011682018060405250810190620013c891906200391f565b915050919050565b60008054906101000a900473ffffffffffffffffffffffffffffffffffffffff1681565b60008073ffffffffffffffffffffffffffffffffffffffff166002600084815260200190815260200160002060009054906101000a900473ffffffffffffffffffffffffffffffffffffffff1673ffffffffffffffffffffffffffffffffffffffff16146200146757600190506200146c565b600090505b919050565b60003073ffffffffffffffffffffffffffffffffffffffff16634f558e79836040518263ffffffff1660e01b8152600401620014ae9190620032f5565b602060405180830381865afa158015620014cc573d6000803e3d6000fd5b505050506040513d601f19601f82011682018060405250810190620014f291906200351c565b62001534576040517f08c379a00000000000000000000000000000000000000000000000000000000081526004016200152b9062003742565b60405180910390fd5b60006002600084815260200190815260200160002060009054906101000a900473ffffffffffffffffffffffffffffffffffffffff1690508073ffffffffffffffffffffffffffffffffffffffff1663d1ce13ce6040518163ffffffff1660e01b8152600401602060405180830381865afa158015620015b8573d6000803e3d6000fd5b505050506040513d601f19601f82011682018060405250810190620015de919062003abe565b915050919050565b60003073ffffffffffffffffffffffffffffffffffffffff16634f558e79836040518263ffffffff1660e01b8152600401620016239190620032f5565b602060405180830381865afa15801562001641573d6000803e3d6000fd5b505050506040513d601f19601f820116820180604052508101906200166791906200351c565b620016a9576040517f08c379a0000000000000000000000000000000000000000000000000000000008152600401620016a09062003742565b60405180910390fd5b60006002600084815260200190815260200160002060009054906101000a900473ffffffffffffffffffffffffffffffffffffffff1690508073ffffffffffffffffffffffffffffffffffffffff1663b13564886040518163ffffffff1660e01b8152600401602060405180830381865afa1580156200172d573d6000803e3d6000fd5b505050506040513d601f19601f8201168201806040525081019062001753919062003abe565b915050919050565b60008054906101000a900473ffffffffffffffffffffffffffffffffffffffff1673ffffffffffffffffffffffffffffffffffffffff163373ffffffffffffffffffffffffffffffffffffffff1614620017ec576040517f08c379a0000000000000000000000000000000000000000000000000000000008152600401620017e39062003cb4565b60405180910390fd5b3073ffffffffffffffffffffffffffffffffffffffff16634f558e79846040518263ffffffff1660e01b8152600401620018279190620032f5565b602060405180830381865afa15801562001845573d6000803e3d6000fd5b505050506040513d601f19601f820116820180604052508101906200186b91906200351c565b620018ad576040517f08c379a0000000000000000000000000000000000000000000000000000000008152600401620018a49062003742565b60405180910390fd5b60006002600085815260200190815260200160002060009054906101000a900473ffffffffffffffffffffffffffffffffffffffff16905060648284620018f5919062003cd6565b1462001938576040517f08c379a00000000000000000000000000000000000000000000000000000000081526004016200192f9062003d83565b60405180910390fd5b8073ffffffffffffffffffffffffffffffffffffffff16635b99b6c284846040518363ffffffff1660e01b81526004016200197592919062003da5565b600060405180830381600087803b1580156200199057600080fd5b505af1158015620019a5573d6000803e3d6000fd5b5050505050505050565b60008054906101000a900473ffffffffffffffffffffffffffffffffffffffff1673ffffffffffffffffffffffffffffffffffffffff163373ffffffffffffffffffffffffffffffffffffffff161462001a40576040517f08c379a000000000000000000000000000000000000000000000000000000000815260040162001a379062003cb4565b60405180910390fd5b8060018190555050565b3073ffffffffffffffffffffffffffffffffffffffff16634f558e79826040518263ffffffff1660e01b815260040162001a859190620032f5565b602060405180830381865afa15801562001aa3573d6000803e3d6000fd5b505050506040513d601f19601f8201168201806040525081019062001ac991906200351c565b62001b0b576040517f08c379a000000000000000000000000000000000000000000000000000000000815260040162001b029062003742565b60405180910390fd5b6000341162001b51576040517f08c379a000000000000000000000000000000000000000000000000000000000815260040162001b489062003e48565b60405180910390fd5b60006002600083815260200190815260200160002060009054906101000a900473ffffffffffffffffffffffffffffffffffffffff1690508073ffffffffffffffffffffffffffffffffffffffff1663603daf9a6040518163ffffffff1660e01b8152600401602060405180830381865afa15801562001bd5573d6000803e3d6000fd5b505050506040513d601f19601f8201168201806040525081019062001bfb919062003795565b73ffffffffffffffffffffffffffffffffffffffff163373ffffffffffffffffffffffffffffffffffffffff161462001c6b576040517f08c379a000000000000000000000000000000000000000000000000000000000815260040162001c629062003ee0565b60405180910390fd5b6000600481111562001c825762001c8162003312565b5b8173ffffffffffffffffffffffffffffffffffffffff16631865c57d6040518163ffffffff1660e01b8152600401602060405180830381865afa15801562001cce573d6000803e3d6000fd5b505050506040513d601f19601f8201168201806040525081019062001cf491906200391f565b600481111562001d095762001d0862003312565b5b1462001d4c576040517f08c379a000000000000000000000000000000000000000000000000000000000815260040162001d439062003f78565b60405180910390fd5b60008173ffffffffffffffffffffffffffffffffffffffff163460405162001d749062003fcf565b60006040518083038185875af1925050503d806000811462001db3576040519150601f19603f3d011682016040523d82523d6000602084013e62001db8565b606091505b505090508062001dff576040517f08c379a000000000000000000000000000000000000000000000000000000000815260040162001df6906200405c565b60405180910390fd5b7fa396f8d98c67c164560cb969bf42c7fd20318f6a13d8a83e7a589a61fb1214b660405162001e2e90620040ce565b60405180910390a1505050565b60003073ffffffffffffffffffffffffffffffffffffffff16634f558e79836040518263ffffffff1660e01b815260040162001e789190620032f5565b602060405180830381865afa15801562001e96573d6000803e3d6000fd5b505050506040513d601f19601f8201168201806040525081019062001ebc91906200351c565b62001efe576040517f08c379a000000000000000000000000000000000000000000000000000000000815260040162001ef59062003742565b60405180910390fd5b60006002600084815260200190815260200160002060009054906101000a900473ffffffffffffffffffffffffffffffffffffffff1690508073ffffffffffffffffffffffffffffffffffffffff1663ec2bc6ef6040518163ffffffff1660e01b8152600401602060405180830381865afa15801562001f82573d6000803e3d6000fd5b505050506040513d601f19601f8201168201806040525081019062001fa8919062003abe565b915050919050565b3073ffffffffffffffffffffffffffffffffffffffff16634f558e79836040518263ffffffff1660e01b815260040162001feb9190620032f5565b602060405180830381865afa15801562002009573d6000803e3d6000fd5b505050506040513d601f19601f820116820180604052508101906200202f91906200351c565b62002071576040517f08c379a0000000000000000000000000000000000000000000000000000000008152600401620020689062003742565b60405180910390fd5b60006002600084815260200190815260200160002060009054906101000a900473ffffffffffffffffffffffffffffffffffffffff1690508073ffffffffffffffffffffffffffffffffffffffff1663603daf9a6040518163ffffffff1660e01b8152600401602060405180830381865afa158015620020f5573d6000803e3d6000fd5b505050506040513d601f19601f820116820180604052508101906200211b919062003795565b73ffffffffffffffffffffffffffffffffffffffff163373ffffffffffffffffffffffffffffffffffffffff16146200218b576040517f08c379a0000000000000000000000000000000000000000000000000000000008152600401620021829062003ee0565b60405180910390fd5b60006004811115620021a257620021a162003312565b5b8173ffffffffffffffffffffffffffffffffffffffff16631865c57d6040518163ffffffff1660e01b8152600401602060405180830381865afa158015620021ee573d6000803e3d6000fd5b505050506040513d601f19601f820116820180604052508101906200221491906200391f565b600481111562002229576200222862003312565b5b146200226c576040517f08c379a000000000000000000000000000000000000000000000000000000000815260040162002263906200418c565b60405180910390fd5b81620022af576040517f08c379a0000000000000000000000000000000000000000000000000000000008152600401620022a69062004224565b60405180910390fd5b8115620023d2578073ffffffffffffffffffffffffffffffffffffffff166356de96db60016040518263ffffffff1660e01b8152600401620022f2919062003392565b600060405180830381600087803b1580156200230d57600080fd5b505af115801562002322573d6000803e3d6000fd5b505050508073ffffffffffffffffffffffffffffffffffffffff16639cb99c6e426040518263ffffffff1660e01b8152600401620023619190620032f5565b600060405180830381600087803b1580156200237c57600080fd5b505af115801562002391573d6000803e3d6000fd5b505050507fa396f8d98c67c164560cb969bf42c7fd20318f6a13d8a83e7a589a61fb1214b6604051620023c490620042bc565b60405180910390a16200246c565b8073ffffffffffffffffffffffffffffffffffffffff1663ea8a1af06040518163ffffffff1660e01b8152600401600060405180830381600087803b1580156200241b57600080fd5b505af115801562002430573d6000803e3d6000fd5b505050507fa396f8d98c67c164560cb969bf42c7fd20318f6a13d8a83e7a589a61fb1214b6604051620024639062004354565b60405180910390a15b505050565b60003073ffffffffffffffffffffffffffffffffffffffff16634f558e79836040518263ffffffff1660e01b8152600401620024ae9190620032f5565b602060405180830381865afa158015620024cc573d6000803e3d6000fd5b505050506040513d601f19601f82011682018060405250810190620024f291906200351c565b62002534576040517f08c379a00000000000000000000000000000000000000000000000000000000081526004016200252b9062003742565b60405180910390fd5b60006002600084815260200190815260200160002060009054906101000a900473ffffffffffffffffffffffffffffffffffffffff16905080915050919050565b60003073ffffffffffffffffffffffffffffffffffffffff16634f558e79836040518263ffffffff1660e01b8152600401620025b29190620032f5565b602060405180830381865afa158015620025d0573d6000803e3d6000fd5b505050506040513d601f19601f82011682018060405250810190620025f691906200351c565b62002638576040517f08c379a00000000000000000000000000000000000000000000000000000000081526004016200262f9062003742565b60405180910390fd5b60006002600084815260200190815260200160002060009054906101000a900473ffffffffffffffffffffffffffffffffffffffff1690508073ffffffffffffffffffffffffffffffffffffffff166378f305c66040518163ffffffff1660e01b8152600401602060405180830381865afa158015620026bc573d6000803e3d6000fd5b505050506040513d601f19601f82011682018060405250810190620026e2919062003abe565b915050919050565b60003073ffffffffffffffffffffffffffffffffffffffff16634f558e79836040518263ffffffff1660e01b8152600401620027279190620032f5565b602060405180830381865afa15801562002745573d6000803e3d6000fd5b505050506040513d601f19601f820116820180604052508101906200276b91906200351c565b620027ad576040517f08c379a0000000000000000000000000000000000000000000000000000000008152600401620027a49062003742565b60405180910390fd5b60006002600084815260200190815260200160002060009054906101000a900473ffffffffffffffffffffffffffffffffffffffff1690508073ffffffffffffffffffffffffffffffffffffffff1663c6ff1d836040518163ffffffff1660e01b8152600401602060405180830381865afa15801562002831573d6000803e3d6000fd5b505050506040513d601f19601f8201168201806040525081019062002857919062003abe565b915050919050565b3073ffffffffffffffffffffffffffffffffffffffff16634f558e79846040518263ffffffff1660e01b81526004016200289a9190620032f5565b602060405180830381865afa158015620028b8573d6000803e3d6000fd5b505050506040513d601f19601f82011682018060405250810190620028de91906200351c565b62002920576040517f08c379a0000000000000000000000000000000000000000000000000000000008152600401620029179062003742565b60405180910390fd5b60006002600085815260200190815260200160002060009054906101000a900473ffffffffffffffffffffffffffffffffffffffff1690508073ffffffffffffffffffffffffffffffffffffffff1663603daf9a6040518163ffffffff1660e01b8152600401602060405180830381865afa158015620029a4573d6000803e3d6000fd5b505050506040513d601f19601f82011682018060405250810190620029ca919062003795565b73ffffffffffffffffffffffffffffffffffffffff163373ffffffffffffffffffffffffffffffffffffffff161462002a3a576040517f08c379a000000000000000000000000000000000000000000000000000000000815260040162002a31906200383d565b60405180910390fd5b6002600481111562002a515762002a5062003312565b5b8173ffffffffffffffffffffffffffffffffffffffff16631865c57d6040518163ffffffff1660e01b8152600401602060405180830381865afa15801562002a9d573d6000803e3d6000fd5b505050506040513d601f19601f8201168201806040525081019062002ac391906200391f565b600481111562002ad85762002ad762003312565b5b1462002b1b576040517f08c379a000000000000000000000000000000000000000000000000000000000815260040162002b1290620043ec565b60405180910390fd5b82801562002b265750815b62002b68576040517f08c379a000000000000000000000000000000000000000000000000000000000815260040162002b5f90620044d0565b60405180910390fd5b8073ffffffffffffffffffffffffffffffffffffffff1663522e11776040518163ffffffff1660e01b8152600401600060405180830381600087803b15801562002bb157600080fd5b505af115801562002bc6573d6000803e3d6000fd5b5050505050505050565b3073ffffffffffffffffffffffffffffffffffffffff16634f558e79836040518263ffffffff1660e01b815260040162002c0b9190620032f5565b602060405180830381865afa15801562002c29573d6000803e3d6000fd5b505050506040513d601f19601f8201168201806040525081019062002c4f91906200351c565b62002c91576040517f08c379a000000000000000000000000000000000000000000000000000000000815260040162002c889062003742565b60405180910390fd5b60006002600084815260200190815260200160002060009054906101000a900473ffffffffffffffffffffffffffffffffffffffff1690508073ffffffffffffffffffffffffffffffffffffffff1663dbd0e1b66040518163ffffffff1660e01b8152600401602060405180830381865afa15801562002d15573d6000803e3d6000fd5b505050506040513d601f19601f8201168201806040525081019062002d3b919062003795565b73ffffffffffffffffffffffffffffffffffffffff163373ffffffffffffffffffffffffffffffffffffffff161462002dab576040517f08c379a000000000000000000000000000000000000000000000000000000000815260040162002da29062004568565b60405180910390fd5b6001600481111562002dc25762002dc162003312565b5b8173ffffffffffffffffffffffffffffffffffffffff16631865c57d6040518163ffffffff1660e01b8152600401602060405180830381865afa15801562002e0e573d6000803e3d6000fd5b505050506040513d601f19601f8201168201806040525081019062002e3491906200391f565b600481111562002e495762002e4862003312565b5b1462002e8c576040517f08c379a000000000000000000000000000000000000000000000000000000000815260040162002e839062004600565b60405180910390fd5b811562002fc5578073ffffffffffffffffffffffffffffffffffffffff16632852b71c6040518163ffffffff1660e01b8152600401600060405180830381600087803b15801562002edc57600080fd5b505af115801562002ef1573d6000803e3d6000fd5b505050508073ffffffffffffffffffffffffffffffffffffffff166363d70ec760008054906101000a900473ffffffffffffffffffffffffffffffffffffffff166001546040518363ffffffff1660e01b815260040162002f5492919062004622565b600060405180830381600087803b15801562002f6f57600080fd5b505af115801562002f84573d6000803e3d6000fd5b505050507fa396f8d98c67c164560cb969bf42c7fd20318f6a13d8a83e7a589a61fb1214b660405162002fb7906200469f565b60405180910390a162003066565b8162003065578073ffffffffffffffffffffffffffffffffffffffff1663ea8a1af06040518163ffffffff1660e01b8152600401600060405180830381600087803b1580156200301457600080fd5b505af115801562003029573d6000803e3d6000fd5b505050507fa396f8d98c67c164560cb969bf42c7fd20318f6a13d8a83e7a589a61fb1214b66040516200305c9062004711565b60405180910390a15b5b505050565b61153e806200473483390190565b600080fd5b6000819050919050565b62003093816200307e565b81146200309f57600080fd5b50565b600081359050620030b38162003088565b92915050565b600060208284031215620030d257620030d162003079565b5b6000620030e284828501620030a2565b91505092915050565b600073ffffffffffffffffffffffffffffffffffffffff82169050919050565b6000819050919050565b600062003136620031306200312a84620030eb565b6200310b565b620030eb565b9050919050565b60006200314a8262003115565b9050919050565b60006200315e826200313d565b9050919050565b620031708162003151565b82525050565b60006020820190506200318d600083018462003165565b92915050565b6000620031a082620030eb565b9050919050565b620031b28162003193565b8114620031be57600080fd5b50565b600081359050620031d281620031a7565b92915050565b600080600080600060a08688031215620031f757620031f662003079565b5b60006200320788828901620030a2565b95505060206200321a88828901620031c1565b94505060406200322d88828901620031c1565b93505060606200324088828901620030a2565b92505060806200325388828901620030a2565b9150509295509295909350565b60008115159050919050565b620032778162003260565b81146200328357600080fd5b50565b60008135905062003297816200326c565b92915050565b60008060408385031215620032b757620032b662003079565b5b6000620032c785828601620030a2565b9250506020620032da8582860162003286565b9150509250929050565b620032ef816200307e565b82525050565b60006020820190506200330c6000830184620032e4565b92915050565b7f4e487b7100000000000000000000000000000000000000000000000000000000600052602160045260246000fd5b6005811062003355576200335462003312565b5b50565b6000819050620033688262003341565b919050565b60006200337a8262003358565b9050919050565b6200338c816200336d565b82525050565b6000602082019050620033a9600083018462003381565b92915050565b620033ba8162003193565b82525050565b6000602082019050620033d76000830184620033af565b92915050565b620033e88162003260565b82525050565b6000602082019050620034056000830184620033dd565b92915050565b60008060006060848603121562003427576200342662003079565b5b60006200343786828701620030a2565b93505060206200344a86828701620030a2565b92505060406200345d86828701620030a2565b9150509250925092565b60006200347482620030eb565b9050919050565b620034868162003467565b82525050565b6000602082019050620034a360008301846200347b565b92915050565b600080600060608486031215620034c557620034c462003079565b5b6000620034d586828701620030a2565b9350506020620034e88682870162003286565b9250506040620034fb8682870162003286565b9150509250925092565b60008151905062003516816200326c565b92915050565b60006020828403121562003535576200353462003079565b5b6000620035458482850162003505565b91505092915050565b600082825260208201905092915050565b7f536f727279206120636f6e74726163742077697468207468617420494420616c60008201527f72656164792065786973742e0000000000000000000000000000000000000000602082015250565b6000620035bd602c836200354e565b9150620035ca826200355f565b604082019050919050565b60006020820190508181036000830152620035f081620035ae565b9050919050565b7f456e7375726520627579657220616e642073656c6c657220616464726573732060008201527f6172652076616c69642e00000000000000000000000000000000000000000000602082015250565b600062003655602a836200354e565b91506200366282620035f7565b604082019050919050565b60006020820190508181036000830152620036888162003646565b9050919050565b6000606082019050620036a66000830186620033af565b620036b56020830185620033af565b620036c460408301846200347b565b949350505050565b7f536f727279206120636f6e74726163742077697468207468617420494420646f60008201527f65736e27742065786973742e0000000000000000000000000000000000000000602082015250565b60006200372a602c836200354e565b91506200373782620036cc565b604082019050919050565b600060208201905081810360008301526200375d816200371b565b9050919050565b6200376f8162003467565b81146200377b57600080fd5b50565b6000815190506200378f8162003764565b92915050565b600060208284031215620037ae57620037ad62003079565b5b6000620037be848285016200377e565b91505092915050565b7f4f6e6c7920746865206275796572206f66207468697320636f6e74726163742060008201527f63616e2063616e63656c206f666665722e000000000000000000000000000000602082015250565b6000620038256031836200354e565b91506200383282620037c7565b604082019050919050565b60006020820190508181036000830152620038588162003816565b9050919050565b7f546f2063616e63656c20636f6e747261637420656e74657220612076616c696460008201527f20706f73697469766520626f6f6c20696e707574000000000000000000000000602082015250565b6000620038bd6034836200354e565b9150620038ca826200385f565b604082019050919050565b60006020820190508181036000830152620038f081620038ae565b9050919050565b600581106200390557600080fd5b50565b6000815190506200391981620038f7565b92915050565b60006020828403121562003938576200393762003079565b5b6000620039488482850162003908565b91505092915050565b7f436f6e74726163742063616e206f6e6c792062652063616e63656c6c6564206960008201527f66206974206973207374696c6c206177616974696e6720616363657074616e6360208201527f652066726f6d2073656c6c65722e000000000000000000000000000000000000604082015250565b6000620039d5604e836200354e565b9150620039e28262003951565b606082019050919050565b6000602082019050818103600083015262003a0881620039c6565b9050919050565b7f436f6e74726163742063616e63656c6c656420616e642073746174652075706460008201527f617465642e000000000000000000000000000000000000000000000000000000602082015250565b600062003a6d6025836200354e565b915062003a7a8262003a0f565b604082019050919050565b6000602082019050818103600083015262003aa08162003a5e565b9050919050565b60008151905062003ab88162003088565b92915050565b60006020828403121562003ad75762003ad662003079565b5b600062003ae78482850162003aa7565b91505092915050565b7f4e487b7100000000000000000000000000000000000000000000000000000000600052601160045260246000fd5b600062003b2c826200307e565b915062003b39836200307e565b92508282101562003b4f5762003b4e62003af0565b5b828203905092915050565b7f506c6561736520616c6c6f77203520646179732028696e636c7564696e67207760008201527f65656b656e64732920666f72207468652073656c6c657220746f20616363657060208201527f74206265666f72652063616e63656c6c696e672e000000000000000000000000604082015250565b600062003bde6054836200354e565b915062003beb8262003b5a565b606082019050919050565b6000602082019050818103600083015262003c118162003bcf565b9050919050565b7f4f6e6c7920746865206465706c6f796572206f66207468697320636f6e74726160008201527f63742063616e20637265617465207573657220746869732066756e6374696f6e60208201527f2e00000000000000000000000000000000000000000000000000000000000000604082015250565b600062003c9c6041836200354e565b915062003ca98262003c18565b606082019050919050565b6000602082019050818103600083015262003ccf8162003c8d565b9050919050565b600062003ce3826200307e565b915062003cf0836200307e565b9250827fffffffffffffffffffffffffffffffffffffffffffffffffffffffffffffffff0382111562003d285762003d2762003af0565b5b828201905092915050565b7f50657263656e7473206d7573742061646420757020746f203130302e00000000600082015250565b600062003d6b601c836200354e565b915062003d788262003d33565b602082019050919050565b6000602082019050818103600083015262003d9e8162003d5c565b9050919050565b600060408201905062003dbc6000830185620032e4565b62003dcb6020830184620032e4565b9392505050565b7f506c6561736520656e7375726520616d6f756e74206465706f7369746965642060008201527f69732067726561746572207468616e20302e0000000000000000000000000000602082015250565b600062003e306032836200354e565b915062003e3d8262003dd2565b604082019050919050565b6000602082019050818103600083015262003e638162003e21565b9050919050565b7f4f6e6c792074686520646566696e6564206275796572206f662074686973206360008201527f6f6e74726163742063616e206465706f73697420746f20706f742e0000000000602082015250565b600062003ec8603b836200354e565b915062003ed58262003e6a565b604082019050919050565b6000602082019050818103600083015262003efb8162003eb9565b9050919050565b7f436f6e74726163742063616e6e6f74207265636965766520616e79206d6f726560008201527f2066756e64732e00000000000000000000000000000000000000000000000000602082015250565b600062003f606027836200354e565b915062003f6d8262003f02565b604082019050919050565b6000602082019050818103600083015262003f938162003f51565b9050919050565b600081905092915050565b50565b600062003fb760008362003f9a565b915062003fc48262003fa5565b600082019050919050565b600062003fdc8262003fa8565b9150819050919050565b7f4572726f72207472616e73666572696e672066756e647320746f20657363726f60008201527f7720636f6e74726163742e000000000000000000000000000000000000000000602082015250565b600062004044602b836200354e565b9150620040518262003fe6565b604082019050919050565b60006020820190508181036000830152620040778162004035565b9050919050565b7f5375636365737366756c6c79206465706f73697465642066756e64732e000000600082015250565b6000620040b6601d836200354e565b9150620040c3826200407e565b602082019050919050565b60006020820190508181036000830152620040e981620040a7565b9050919050565b7f436f6e7472616374206d75737420626520616363657074696e672066756e647360008201527f20696e206f7264657220746f20626520636f6e6669726d65642062792062757960208201527f65722e0000000000000000000000000000000000000000000000000000000000604082015250565b6000620041746043836200354e565b91506200418182620040f0565b606082019050919050565b60006020820190508181036000830152620041a78162004165565b9050919050565b7f546f2063616e63656c20636f6e747261637420656e74657220612076616c696460008201527f20706f73697469766520626f6f6c20696e7075742e0000000000000000000000602082015250565b60006200420c6035836200354e565b91506200421982620041ae565b604082019050919050565b600060208201905081810360008301526200423f81620041fd565b9050919050565b7f436f6e7472616374206973206e6f77206177616974696e672073656c6c65722060008201527f616363657074616e63652e000000000000000000000000000000000000000000602082015250565b6000620042a4602b836200354e565b9150620042b18262004246565b604082019050919050565b60006020820190508181036000830152620042d78162004295565b9050919050565b7f436f6e747261637420686173206265656e2063616e63656c6c65642c2066756e60008201527f64732068617665206265656e2072657475726e65642e00000000000000000000602082015250565b60006200433c6036836200354e565b91506200434982620042de565b604082019050919050565b600060208201905081810360008301526200436f816200432d565b9050919050565b7f436f6e7472616374206973206e6f742063757272656e746c792077616974696e60008201527f6720666f7220627579657220736174697366616374696f6e2e00000000000000602082015250565b6000620043d46039836200354e565b9150620043e18262004376565b604082019050919050565b600060208201905081810360008301526200440781620043c5565b9050919050565b7f546f20636f6e6669726d20636f6e747261637420736174697366616374696f6e60008201527f20706c6561736520656e7375726520626f746820796f7572206465636973696f60208201527f6e20616e6420636f6e6669726d6174696f6e2061726520706f7369746976652060408201527f626f6f6c20696e707574732e0000000000000000000000000000000000000000606082015250565b6000620044b8606c836200354e565b9150620044c5826200440e565b608082019050919050565b60006020820190508181036000830152620044eb81620044a9565b9050919050565b7f4f6e6c79207468652073656c6c6572206f66207468697320636f6e747261637460008201527f2063616e20616363657074206f66666572000000000000000000000000000000602082015250565b6000620045506031836200354e565b91506200455d82620044f2565b604082019050919050565b60006020820190508181036000830152620045838162004541565b9050919050565b7f536f7272792c207468697320636f6e74726163742063616e6e6f74206265206160008201527f6363657074656420617420746869732074696d652e0000000000000000000000602082015250565b6000620045e86035836200354e565b9150620045f5826200458a565b604082019050919050565b600060208201905081810360008301526200461b81620045d9565b9050919050565b6000604082019050620046396000830185620033af565b620046486020830184620032e4565b9392505050565b7f436f6e747261637420686173206265656e2061636365707465642e0000000000600082015250565b600062004687601b836200354e565b915062004694826200464f565b602082019050919050565b60006020820190508181036000830152620046ba8162004678565b9050919050565b7f436f6e74726163742063616e63656c6c65642e00000000000000000000000000600082015250565b6000620046f96013836200354e565b91506200470682620046c1565b602082019050919050565b600060208201905081810360008301526200472c81620046ea565b905091905056fe60806040523480156200001157600080fd5b506040516200153e3803806200153e8339818101604052810190620000379190620001df565b826000806101000a81548173ffffffffffffffffffffffffffffffffffffffff021916908373ffffffffffffffffffffffffffffffffffffffff16021790555081600160006101000a81548173ffffffffffffffffffffffffffffffffffffffff021916908373ffffffffffffffffffffffffffffffffffffffff16021790555080600260006101000a81548173ffffffffffffffffffffffffffffffffffffffff021916908373ffffffffffffffffffffffffffffffffffffffff1602179055506000600960006101000a81548160ff021916908360048111156200012257620001216200023b565b5b02179055505050506200026a565b600080fd5b600073ffffffffffffffffffffffffffffffffffffffff82169050919050565b6000620001628262000135565b9050919050565b620001748162000155565b81146200018057600080fd5b50565b600081519050620001948162000169565b92915050565b6000620001a78262000135565b9050919050565b620001b9816200019a565b8114620001c557600080fd5b50565b600081519050620001d981620001ae565b92915050565b600080600060608486031215620001fb57620001fa62000130565b5b60006200020b8682870162000183565b93505060206200021e8682870162000183565b92505060406200023186828701620001c8565b9150509250925092565b7f4e487b7100000000000000000000000000000000000000000000000000000000600052602160045260246000fd5b6112c4806200027a6000396000f3fe6080604052600436106101235760003560e01c80637150d8ae116100a0578063c6ff1d8311610064578063c6ff1d8314610377578063d1ce13ce146103a2578063dbd0e1b6146103cd578063ea8a1af0146103f8578063ec2bc6ef1461040f57610124565b80637150d8ae146102a457806378f305c6146102cf57806382d95df5146102fa5780639cb99c6e14610323578063b13564881461034c57610124565b806352fa2643116100e757806352fa2643146101d357806356de96db146101fe5780635b99b6c214610227578063603daf9a1461025057806363d70ec71461027b57610124565b806308551a53146101265780631865c57d146101515780632852b71c1461017c5780633784f00014610193578063522e1177146101bc57610124565b5b005b34801561013257600080fd5b5061013b61043a565b6040516101489190610e89565b60405180910390f35b34801561015d57600080fd5b5061016661045e565b6040516101739190610f1b565b60405180910390f35b34801561018857600080fd5b50610191610475565b005b34801561019f57600080fd5b506101ba60048036038101906101b59190610f71565b610539565b005b3480156101c857600080fd5b506101d16105d3565b005b3480156101df57600080fd5b506101e8610705565b6040516101f59190610fad565b60405180910390f35b34801561020a57600080fd5b5061022560048036038101906102209190610fed565b61070f565b005b34801561023357600080fd5b5061024e6004803603810190610249919061101a565b6107cc565b005b34801561025c57600080fd5b50610265610a4a565b604051610272919061107b565b60405180910390f35b34801561028757600080fd5b506102a2600480360381019061029d91906110c2565b610a74565b005b3480156102b057600080fd5b506102b9610b66565b6040516102c69190610e89565b60405180910390f35b3480156102db57600080fd5b506102e4610b8c565b6040516102f19190610fad565b60405180910390f35b34801561030657600080fd5b50610321600480360381019061031c9190610f71565b610b96565b005b34801561032f57600080fd5b5061034a60048036038101906103459190610f71565b610c30565b005b34801561035857600080fd5b50610361610cca565b60405161036e9190610fad565b60405180910390f35b34801561038357600080fd5b5061038c610cd4565b6040516103999190610fad565b60405180910390f35b3480156103ae57600080fd5b506103b7610cde565b6040516103c49190610fad565b60405180910390f35b3480156103d957600080fd5b506103e2610ce8565b6040516103ef919061107b565b60405180910390f35b34801561040457600080fd5b5061040d610d11565b005b34801561041b57600080fd5b50610424610e3e565b6040516104319190610fad565b60405180910390f35b60008054906101000a900473ffffffffffffffffffffffffffffffffffffffff1681565b6000600960009054906101000a900460ff16905090565b600260009054906101000a900473ffffffffffffffffffffffffffffffffffffffff1673ffffffffffffffffffffffffffffffffffffffff163373ffffffffffffffffffffffffffffffffffffffff1614610505576040517f08c379a00000000000000000000000000000000000000000000000000000000081526004016104fc90611185565b60405180910390fd5b6002600960006101000a81548160ff0219169083600481111561052b5761052a610ea4565b5b021790555042600681905550565b600260009054906101000a900473ffffffffffffffffffffffffffffffffffffffff1673ffffffffffffffffffffffffffffffffffffffff163373ffffffffffffffffffffffffffffffffffffffff16146105c9576040517f08c379a00000000000000000000000000000000000000000000000000000000081526004016105c090611185565b60405180910390fd5b8060048190555050565b600260009054906101000a900473ffffffffffffffffffffffffffffffffffffffff1673ffffffffffffffffffffffffffffffffffffffff163373ffffffffffffffffffffffffffffffffffffffff1614610663576040517f08c379a000000000000000000000000000000000000000000000000000000000815260040161065a90611185565b60405180910390fd5b60008054906101000a900473ffffffffffffffffffffffffffffffffffffffff1673ffffffffffffffffffffffffffffffffffffffff166108fc479081150290604051600060405180830381858888f193505050501580156106c9573d6000803e3d6000fd5b5042600781905550426008819055506003600960006101000a81548160ff021916908360048111156106fe576106fd610ea4565b5b0217905550565b6000600854905090565b600260009054906101000a900473ffffffffffffffffffffffffffffffffffffffff1673ffffffffffffffffffffffffffffffffffffffff163373ffffffffffffffffffffffffffffffffffffffff161461079f576040517f08c379a000000000000000000000000000000000000000000000000000000000815260040161079690611185565b60405180910390fd5b80600960006101000a81548160ff021916908360048111156107c4576107c3610ea4565b5b021790555050565b600260009054906101000a900473ffffffffffffffffffffffffffffffffffffffff1673ffffffffffffffffffffffffffffffffffffffff163373ffffffffffffffffffffffffffffffffffffffff161461085c576040517f08c379a000000000000000000000000000000000000000000000000000000000815260040161085390611185565b60405180910390fd5b600082036108d257600160009054906101000a900473ffffffffffffffffffffffffffffffffffffffff1673ffffffffffffffffffffffffffffffffffffffff166108fc479081150290604051600060405180830381858888f193505050501580156108cc573d6000803e3d6000fd5b50610a46565b600081036109465760008054906101000a900473ffffffffffffffffffffffffffffffffffffffff1673ffffffffffffffffffffffffffffffffffffffff166108fc479081150290604051600060405180830381858888f19350505050158015610940573d6000803e3d6000fd5b50610a45565b60008054906101000a900473ffffffffffffffffffffffffffffffffffffffff1673ffffffffffffffffffffffffffffffffffffffff166108fc6064844761098e91906111d4565b610998919061125d565b9081150290604051600060405180830381858888f193505050501580156109c3573d6000803e3d6000fd5b50600160009054906101000a900473ffffffffffffffffffffffffffffffffffffffff1673ffffffffffffffffffffffffffffffffffffffff166108fc60648347610a0e91906111d4565b610a18919061125d565b9081150290604051600060405180830381858888f19350505050158015610a43573d6000803e3d6000fd5b505b5b5050565b6000600160009054906101000a900473ffffffffffffffffffffffffffffffffffffffff16905090565b600260009054906101000a900473ffffffffffffffffffffffffffffffffffffffff1673ffffffffffffffffffffffffffffffffffffffff163373ffffffffffffffffffffffffffffffffffffffff1614610b04576040517f08c379a0000000000000000000000000000000000000000000000000000000008152600401610afb90611185565b60405180910390fd5b8173ffffffffffffffffffffffffffffffffffffffff166108fc60648347610b2c91906111d4565b610b36919061125d565b9081150290604051600060405180830381858888f19350505050158015610b61573d6000803e3d6000fd5b505050565b600160009054906101000a900473ffffffffffffffffffffffffffffffffffffffff1681565b6000600354905090565b600260009054906101000a900473ffffffffffffffffffffffffffffffffffffffff1673ffffffffffffffffffffffffffffffffffffffff163373ffffffffffffffffffffffffffffffffffffffff1614610c26576040517f08c379a0000000000000000000000000000000000000000000000000000000008152600401610c1d90611185565b60405180910390fd5b8060038190555050565b600260009054906101000a900473ffffffffffffffffffffffffffffffffffffffff1673ffffffffffffffffffffffffffffffffffffffff163373ffffffffffffffffffffffffffffffffffffffff1614610cc0576040517f08c379a0000000000000000000000000000000000000000000000000000000008152600401610cb790611185565b60405180910390fd5b8060058190555050565b6000600454905090565b6000600654905090565b6000600554905090565b60008060009054906101000a900473ffffffffffffffffffffffffffffffffffffffff16905090565b600260009054906101000a900473ffffffffffffffffffffffffffffffffffffffff1673ffffffffffffffffffffffffffffffffffffffff163373ffffffffffffffffffffffffffffffffffffffff1614610da1576040517f08c379a0000000000000000000000000000000000000000000000000000000008152600401610d9890611185565b60405180910390fd5b600160009054906101000a900473ffffffffffffffffffffffffffffffffffffffff1673ffffffffffffffffffffffffffffffffffffffff166108fc479081150290604051600060405180830381858888f19350505050158015610e09573d6000803e3d6000fd5b50426008819055506004600960006101000a81548160ff02191690836004811115610e3757610e36610ea4565b5b0217905550565b6000600754905090565b600073ffffffffffffffffffffffffffffffffffffffff82169050919050565b6000610e7382610e48565b9050919050565b610e8381610e68565b82525050565b6000602082019050610e9e6000830184610e7a565b92915050565b7f4e487b7100000000000000000000000000000000000000000000000000000000600052602160045260246000fd5b60058110610ee457610ee3610ea4565b5b50565b6000819050610ef582610ed3565b919050565b6000610f0582610ee7565b9050919050565b610f1581610efa565b82525050565b6000602082019050610f306000830184610f0c565b92915050565b600080fd5b6000819050919050565b610f4e81610f3b565b8114610f5957600080fd5b50565b600081359050610f6b81610f45565b92915050565b600060208284031215610f8757610f86610f36565b5b6000610f9584828501610f5c565b91505092915050565b610fa781610f3b565b82525050565b6000602082019050610fc26000830184610f9e565b92915050565b60058110610fd557600080fd5b50565b600081359050610fe781610fc8565b92915050565b60006020828403121561100357611002610f36565b5b600061101184828501610fd8565b91505092915050565b6000806040838503121561103157611030610f36565b5b600061103f85828601610f5c565b925050602061105085828601610f5c565b9150509250929050565b600061106582610e48565b9050919050565b6110758161105a565b82525050565b6000602082019050611090600083018461106c565b92915050565b61109f81610e68565b81146110aa57600080fd5b50565b6000813590506110bc81611096565b92915050565b600080604083850312156110d9576110d8610f36565b5b60006110e7858286016110ad565b92505060206110f885828601610f5c565b9150509250929050565b600082825260208201905092915050565b7f4f6e6c792074686520666163746f72792063616e20656469742074686973206360008201527f6f6e747261637400000000000000000000000000000000000000000000000000602082015250565b600061116f602783611102565b915061117a82611113565b604082019050919050565b6000602082019050818103600083015261119e81611162565b9050919050565b7f4e487b7100000000000000000000000000000000000000000000000000000000600052601160045260246000fd5b60006111df82610f3b565b91506111ea83610f3b565b9250817fffffffffffffffffffffffffffffffffffffffffffffffffffffffffffffffff0483118215151615611223576112226111a5565b5b828202905092915050565b7f4e487b7100000000000000000000000000000000000000000000000000000000600052601260045260246000fd5b600061126882610f3b565b915061127383610f3b565b9250826112835761128261122e565b5b82820490509291505056fea264697066735822122067459c3bbe8bafe5897803b8b2eaaa6286a3ee988a2be4e54c6139207a4b217364736f6c634300080e0033a264697066735822122037550ebd950023b48df9669c63dcdfb3754a3301ba4a4788e9569574d7a9c9e464736f6c634300080e0033",
  "immutableReferences": {},
  "source": "// SPDX-License-Identifier: MIT\r\npragma solidity ^0.8.8;\r\n\r\n// Create an enum which defines what states the contract can be in\r\nenum contractState{AWAITING_BUYER_PAYMENT,AWAITNG_SELLER_ACCEPTANCE,AWAITING_BUYER_SATISFACTION,COMPLETE,CANCELLED}\r\n\r\ncontract Escrow_Factory {\r\n\r\n    // Allows a notification to the user\r\n    event notify(string message);\r\n\r\n    // Initialise global variables\r\n    address payable public factoryOwner;\r\n    uint256 fee;\r\n    mapping(uint256 => Escrow) public escrows;\r\n\r\n    constructor() {\r\n        factoryOwner = payable(msg.sender);\r\n\r\n        // default fee in percent\r\n        fee = 4;\r\n    }\r\n\r\n    // Modifier for a function that means it can only be ran by the factoryOwner\r\n    modifier onlyOwner {\r\n        require(msg.sender == factoryOwner, 'Only the deployer of this contract can create user this function.');\r\n        _;\r\n    }\r\n\r\n    // Allows factory owner to change fee for any future contracts\r\n    function setFee(uint256 _fee) onlyOwner public {\r\n        fee = _fee;\r\n    }\r\n\r\n    // Creates a new escrow contract\r\n    function newEscrow(uint256 _id, address payable _seller, address payable _buyer, uint256 _startDate, uint256 _endDate) external {\r\n\r\n        // Check a contract doesnt already exist with that ID\r\n        require(!this.exists(_id), 'Sorry a contract with that ID already exist.');\r\n\r\n        // Check _seller, _buyer are not empty inputs\r\n        require(_seller != address(0) && _buyer != address(0), 'Ensure buyer and seller address are valid.');\r\n\r\n        // Create new contract\r\n        Escrow e = new Escrow(_seller,_buyer,address(this));\r\n\r\n        e.setStartDate(_startDate);\r\n        e.setEndDate(_endDate);\r\n\r\n        // Store contract in mapping\r\n        escrows[_id] = e;\r\n\r\n    }\r\n\r\n    // Reusable function for buyer to deposit into contract before confirming offer\r\n    function buyerDeposit(uint256 _id) external payable {\r\n\r\n        // Check a contract doesnt already exist with that ID\r\n        require(this.exists(_id), \"Sorry a contract with that ID doesn't exist.\");\r\n\r\n        // Ensure value deposited is greater than 0\r\n        require(msg.value > 0, 'Please ensure amount depositied is greater than 0.');\r\n\r\n        // Get contract\r\n        Escrow e = escrows[_id];\r\n\r\n        // Check msg.sender is the buyer of the contract\r\n        require(msg.sender == e.getBuyer(), 'Only the defined buyer of this contract can deposit to pot.');\r\n\r\n        // Check contract is in a state ready to accept buyer deposit\r\n        require(e.getState() == contractState.AWAITING_BUYER_PAYMENT, 'Contract cannot recieve any more funds.');\r\n\r\n        // Move funds to escrow contract\r\n        (bool success, ) = address(e).call{value:msg.value}('');\r\n        require(success, 'Error transfering funds to escrow contract.');\r\n\r\n        // Notify user\r\n        emit notify('Successfully deposited funds.');\r\n\r\n    }\r\n\r\n    // Function to confirm with buyer the amount of ether entered into the contract is correct. If\r\n    // not then the funds stored within contract is returned back to the buyer and contract is marked as complete\r\n    function buyerConfirm(uint256 _id, bool _decision) public {\r\n\r\n        // Check a contract doesnt already exist with that ID\r\n        require(this.exists(_id), \"Sorry a contract with that ID doesn't exist.\");\r\n\r\n        // Get contract\r\n        Escrow e = escrows[_id];\r\n\r\n        // Check msg.sender is the buyer of the contract\r\n        require(msg.sender == e.getBuyer(), 'Only the defined buyer of this contract can deposit to pot.');\r\n\r\n        // Require contract still be in deposit phase\r\n        require(e.getState() == contractState.AWAITING_BUYER_PAYMENT, 'Contract must be accepting funds in order to be confirmed by buyer.');\r\n\r\n        // Check confirmation\r\n        require(_decision, 'To cancel contract enter a valid positive bool input.');\r\n\r\n        // If user inputs true (yes) then set contract to state where seller can accept\r\n        // If user inputs false (no) then cancel and refund monies\r\n        if(_decision) {\r\n\r\n            // Update state of contract to allow seller to accept\r\n            e.setState(contractState.AWAITNG_SELLER_ACCEPTANCE);\r\n\r\n            // Log timestamp when value was confirmed by buyer\r\n            e.setBuyerConfirmedTimeStamp(block.timestamp);\r\n\r\n            // Notify user\r\n            emit notify('Contract is now awaiting seller acceptance.');\r\n\r\n        } else {\r\n\r\n            // Refund value of escrow contract\r\n            e.cancel();\r\n\r\n            // Notify user\r\n            emit notify('Contract has been cancelled, funds have been returned.');\r\n        }\r\n\r\n    }\r\n\r\n    // Function allows buyer to cancel contract if seller doesn't accept within allotted time\r\n    function buyerCancel(uint256 _id, bool _cancel) public {\r\n\r\n        // Check a contract doesnt already exist with that ID\r\n        require(this.exists(_id), \"Sorry a contract with that ID doesn't exist.\");\r\n\r\n        // Get contract\r\n        Escrow e = escrows[_id];\r\n\r\n        // Check msg.sender is the buyer\r\n        require(msg.sender == e.getBuyer(), 'Only the buyer of this contract can cancel offer.');\r\n\r\n        // Attempt to cancel contract\r\n        require(_cancel, 'To cancel contract enter a valid positive bool input');\r\n\r\n        // Make sure contract is in a state that can be cancelled\r\n        require(e.getState() == contractState.AWAITNG_SELLER_ACCEPTANCE || e.getState() == contractState.AWAITING_BUYER_PAYMENT, 'Contract can only be cancelled if it is still awaiting acceptance from seller.');\r\n\r\n        // If contract is waiting on buyer confirmation then cancel and return monies straight away. If waiting for seller\r\n        // to accept then check if 5 days have passed for the seller to accept before allowing buyer to cancel\r\n        if(e.getState() == contractState.AWAITING_BUYER_PAYMENT) {\r\n\r\n            // Cancel contract\r\n            e.cancel();\r\n\r\n            // Notify user\r\n            emit notify('Contract cancelled and state updated.');\r\n\r\n        } else if (e.getState() == contractState.AWAITNG_SELLER_ACCEPTANCE) {\r\n\r\n            // Make sure 5 days have passed for seller to accept\r\n            require((block.timestamp - e.getBuyerConfirmedTimeStamp()) > 5 days, 'Please allow 5 days (including weekends) for the seller to accept before cancelling.');\r\n\r\n            // Refund monies and complete contract\r\n            e.cancel();\r\n\r\n            // Notify user\r\n            emit notify('Contract cancelled and state updated.');\r\n\r\n        }\r\n\r\n    }\r\n\r\n    // This function allows only the seller to accept an offer from the buyer. If they chose to deny (cancel) the offer\r\n    // then all monies are returned back to the buyer.\r\n    function sellerAccept(uint256 _id, bool _decision) public {\r\n\r\n        // Check a contract doesnt already exist with that ID\r\n        require(this.exists(_id), \"Sorry a contract with that ID doesn't exist.\");\r\n\r\n        // Get contract\r\n        Escrow e = escrows[_id];\r\n\r\n        // Check msg.sender is the buyer\r\n        require(msg.sender == e.getSeller(), 'Only the seller of this contract can accept offer');\r\n\r\n        // Ensure contract is waiting for seller acceptance\r\n        require(e.getState() == contractState.AWAITNG_SELLER_ACCEPTANCE, 'Sorry, this contract cannot be accepted at this time.');\r\n\r\n        // If decision is true (accepted) then accept contract and send fee to factory owner, if decision is false (declined)\r\n        // then refund monies\r\n        if(_decision) {\r\n\r\n            // Accept contract\r\n            e.accept();\r\n\r\n            // fee for using escrow contract\r\n            e.sendFee(factoryOwner, fee);\r\n\r\n            // Notify user\r\n            emit notify('Contract has been accepted.');\r\n\r\n        } else if (!_decision) {\r\n\r\n            // Refund monies to buyer\r\n            e.cancel();\r\n\r\n            // Notify user\r\n            emit notify('Contract cancelled.');\r\n\r\n        }\r\n\r\n    }\r\n\r\n    // Determines if buyer is satisfied with product. Asks for confirmation of satisfaction before funds are \r\n    // then paid to the seller\r\n    function buyerSatisfied(uint256 _id, bool _decision, bool _confirm) public {\r\n\r\n        // Check a contract doesnt already exist with that ID\r\n        require(this.exists(_id), \"Sorry a contract with that ID doesn't exist.\");\r\n\r\n        // Get contract\r\n        Escrow e = escrows[_id];\r\n\r\n        // Check msg.sender is the buyer\r\n        require(msg.sender == e.getBuyer(), 'Only the buyer of this contract can cancel offer.');\r\n\r\n        // Check state is waiting for buyer satisfaction\r\n        require(e.getState() == contractState.AWAITING_BUYER_SATISFACTION, 'Contract is not currently waiting for buyer satisfaction.');\r\n\r\n        // Make sure input entered is a positive bool\r\n        require(_decision && _confirm, 'To confirm contract satisfaction please ensure both your decision and confirmation are positive bool inputs.');\r\n\r\n        // Complete contract\r\n        e.complete();\r\n\r\n    }\r\n\r\n    // Admin function for the factory owner. If any disputes occur the factory owner can distribute the contract worth\r\n    // between the buyer and seller as they see fit\r\n    function ownerDecision(uint256 _id, uint256 _percent_seller, uint256 _percent_buyer) onlyOwner external {\r\n\r\n        // Check a contract doesnt already exist with that ID\r\n        require(this.exists(_id), \"Sorry a contract with that ID doesn't exist.\");\r\n\r\n        // Get contract\r\n        Escrow e = escrows[_id];\r\n\r\n        // Check that values entered add up to 100\r\n        require(_percent_seller + _percent_buyer == 100, 'Percents must add up to 100.');\r\n\r\n        // Distribute funds accordingly\r\n        e.ownerDistribute(_percent_seller,_percent_buyer);\r\n\r\n    }\r\n\r\n    // Gets the value of a contract\r\n    function getContractValue(uint256 _id) public view returns (uint256) {\r\n        \r\n        // Check a contract doesnt already exist with that ID\r\n        require(this.exists(_id), \"Sorry a contract with that ID doesn't exist.\");\r\n\r\n        // Get contract\r\n        Escrow e = escrows[_id];\r\n\r\n        // Return balance of contract\r\n        return address(e).balance;\r\n\r\n    }\r\n\r\n    // Gets the address of an escrow contract\r\n    function getContractAddress(uint256 _id) public view returns (address) {\r\n\r\n        // Check a contract doesnt already exist with that ID\r\n        require(this.exists(_id), \"Sorry a contract with that ID doesn't exist.\");\r\n\r\n        // Get contract\r\n        Escrow e = escrows[_id];\r\n\r\n        // Return address of contract\r\n        return address(e);\r\n\r\n    }\r\n\r\n    // Checks if a contract is already allocated a unique ID\r\n    function exists(uint256 _id) public view returns (bool) {\r\n        if(address(escrows[_id]) != address(0)) {\r\n            return true;\r\n        } else {\r\n            return false;\r\n        }\r\n    }\r\n\r\n    // Gets contract state\r\n    function getContractState(uint256 _id) public view returns (contractState) {\r\n        \r\n        // Check a contract doesnt already exist with that ID\r\n        require(this.exists(_id), \"Sorry a contract with that ID doesn't exist.\");\r\n\r\n        // Get contract\r\n        Escrow e = escrows[_id];\r\n\r\n        // Return address of contract\r\n        return e.getState();\r\n    }\r\n\r\n    // Gets unix timestamp when buyer confirms deposit\r\n    function getContractBuyerConfirmedTime(uint256 _id) public view returns (uint256) {\r\n\r\n        // Check a contract doesnt already exist with that ID\r\n        require(this.exists(_id), \"Sorry a contract with that ID doesn't exist.\");\r\n\r\n        // Get contract\r\n        Escrow e = escrows[_id];\r\n\r\n        // Return buyer confirmation timestamp of contract\r\n        return e.getBuyerConfirmedTimeStamp();\r\n        \r\n    }\r\n\r\n    // Gets unix timestamp when seller accepts offer\r\n    function getContractSellerConfirmedTimeStamp(uint256 _id) public view returns (uint256) {\r\n\r\n        // Check a contract doesnt already exist with that ID\r\n        require(this.exists(_id), \"Sorry a contract with that ID doesn't exist.\");\r\n\r\n        // Get contract\r\n        Escrow e = escrows[_id];\r\n\r\n        // Return address of contract\r\n        return e.getSellerConfirmedTimeStamp();\r\n        \r\n    }\r\n\r\n    // Gets unix timestamp when buyer is satisfied with sellers product\r\n    function getContractBuyerSatisfiedTimeStamp(uint256 _id) public view returns (uint256) {\r\n\r\n        // Check a contract doesnt already exist with that ID\r\n        require(this.exists(_id), \"Sorry a contract with that ID doesn't exist.\");\r\n\r\n        // Get contract\r\n        Escrow e = escrows[_id];\r\n\r\n        // Return address of contract\r\n        return e.getBuyerSatisfiedTimeStamp();\r\n        \r\n    }\r\n\r\n    // Gets unix timestmap when contract is completed\r\n    function getContractCompletedTimeStamp(uint256 _id) public view returns (uint256) {\r\n\r\n        // Check a contract doesnt already exist with that ID\r\n        require(this.exists(_id), \"Sorry a contract with that ID doesn't exist.\");\r\n\r\n        // Get contract\r\n        Escrow e = escrows[_id];\r\n\r\n        // Return address of contract\r\n        return e.getCompletedTimeStamp();\r\n        \r\n    }\r\n\r\n    function getStartDate(uint256 _id) public view returns (uint256) {\r\n\r\n        // Check a contract doesnt already exist with that ID\r\n        require(this.exists(_id), \"Sorry a contract with that ID doesn't exist.\");\r\n\r\n        // Get contract\r\n        Escrow e = escrows[_id];\r\n\r\n        // Return start date of contract\r\n        return e.getStartDate();\r\n\r\n    }\r\n\r\n    function getEndDate(uint256 _id) public view returns (uint256) {\r\n\r\n        // Check a contract doesnt already exist with that ID\r\n        require(this.exists(_id), \"Sorry a contract with that ID doesn't exist.\");\r\n\r\n        // Get contract\r\n        Escrow e = escrows[_id];\r\n\r\n        // Return start date of contract\r\n        return e.getEndDate();\r\n\r\n    }\r\n\r\n}\r\n\r\ncontract Escrow {\r\n\r\n    address payable public seller;\r\n    address payable public buyer;\r\n    address factory;\r\n\r\n    uint256 startDate;\r\n    uint256 endDate;\r\n    uint256 buyerConfirmedTimeStamp;\r\n    uint256 sellerConfirmedTimeStamp;\r\n    uint256 buyerSatisfiedTimeStamp;\r\n    uint256 completedTimeStamp;\r\n\r\n    contractState state;\r\n\r\n    modifier onlyFactory {\r\n        require(msg.sender == factory, 'Only the factory can edit this contract');\r\n        _;\r\n    }\r\n\r\n    constructor(address payable _seller, address payable _buyer, address _factory) {\r\n        seller = _seller;\r\n        buyer = _buyer;\r\n        factory = _factory;\r\n\r\n        state = contractState.AWAITING_BUYER_PAYMENT;\r\n    }\r\n\r\n    function getBuyer() public view returns (address) {\r\n        return buyer;\r\n    }\r\n\r\n    function getSeller() public view returns (address) {\r\n        return seller;\r\n    }\r\n\r\n    function getState() public view returns (contractState) {\r\n        return state;\r\n    }\r\n\r\n    function setState(contractState _state) onlyFactory public {\r\n        state = _state;\r\n    }\r\n\r\n    function setBuyerConfirmedTimeStamp(uint256 _time) onlyFactory public {\r\n        buyerConfirmedTimeStamp = _time;\r\n    }\r\n\r\n    function setStartDate(uint256 _startDate) onlyFactory public {\r\n        startDate = _startDate;\r\n    }\r\n\r\n    function setEndDate(uint256 _endDate) onlyFactory public {\r\n        endDate = _endDate;\r\n    }\r\n\r\n    function getEndDate() public view returns (uint256) {\r\n        return endDate;\r\n    }\r\n\r\n    function getStartDate() public view returns (uint256) {\r\n        return startDate;\r\n    }\r\n\r\n    function getBuyerConfirmedTimeStamp() public view returns (uint256) {\r\n        return buyerConfirmedTimeStamp;\r\n    }\r\n\r\n    function getSellerConfirmedTimeStamp() public view returns (uint256) {\r\n        return sellerConfirmedTimeStamp;\r\n    }\r\n\r\n    function getBuyerSatisfiedTimeStamp() public view returns (uint256) {\r\n        return buyerSatisfiedTimeStamp;\r\n    }\r\n\r\n    function getCompletedTimeStamp() public view returns (uint256) {\r\n        return completedTimeStamp;\r\n    }\r\n\r\n    fallback() external payable {}\r\n\r\n    function accept() onlyFactory public {\r\n\r\n        state = contractState.AWAITING_BUYER_SATISFACTION;\r\n\r\n        sellerConfirmedTimeStamp = block.timestamp;\r\n\r\n    }\r\n\r\n    function cancel() onlyFactory external {\r\n\r\n        buyer.transfer(address(this).balance);\r\n\r\n        completedTimeStamp = block.timestamp;\r\n\r\n        state  = contractState.CANCELLED;\r\n    }\r\n\r\n    function complete() onlyFactory external {\r\n\r\n        seller.transfer(address(this).balance);\r\n\r\n        buyerSatisfiedTimeStamp = block.timestamp;\r\n        completedTimeStamp = block.timestamp;\r\n\r\n        state = contractState.COMPLETE;\r\n\r\n    }\r\n\r\n    function sendFee(address payable _owner, uint256 _fee) onlyFactory external {\r\n\r\n        _owner.transfer((address(this).balance) * _fee/100);\r\n\r\n    }\r\n\r\n    function ownerDistribute(uint256 _percent_seller, uint256 _percent_buyer) onlyFactory external {\r\n\r\n        if(_percent_seller == 0) {\r\n            buyer.transfer(address(this).balance);\r\n        } else if (_percent_buyer == 0) {\r\n            seller.transfer(address(this).balance);\r\n        } else {\r\n            seller.transfer((address(this).balance) * _percent_seller/100);\r\n            buyer.transfer((address(this).balance) * _percent_buyer/100);\r\n        }\r\n\r\n    }\r\n\r\n}\r\n\r\n// Author: Etienne Cellier-Clarke, add me on LinkedIn. Cheers.",
  "sourcePath": "E:\\contractFactory\\contracts\\Escrow_Factory.sol",
  "compiler": {
    "name": "solc",
    "version": "0.8.14+commit.80d49f37.Emscripten.clang"
  },
  "schemaVersion": "3.4.4",
  "updatedAt": "2022-06-16T17:49:32.772Z",
  "devdoc": {
    "kind": "dev",
    "methods": {},
    "version": 1
  },
  "userdoc": {
    "kind": "user",
    "methods": {},
    "version": 1
  }
}